:020000040800F2
:10000000B04B00202D040008B1100008B310000808
:10001000B7100008BB100008BF1000080000000067
:10002000000000000000000000000000CD010008FA
:10003000CB10000800000000110200081D24000879
:100040004704000847040008470400084704000864
:100050004704000847040008470400084704000854
:100060004704000847040008470400084704000844
:100070004704000847040008470400084704000834
:100080004704000847040008470400084704000824
:100090004704000847040008470400084704000814
:1000A0004704000847040008470400084704000804
:1000B00047040008470400084704000847040008F4
:1000C00047040008470400084704000847040008E4
:1000D00047040008470400084704000847040008D4
:1000E00047040008470400084704000847040008C4
:1000F00047040008470400084704000847040008B4
:1001000047040008470400084704000847040008A3
:100110004704000847040008470400084704000893
:100120004704000847040008470400084704000883
:1001300000F002F800F03AF80AA090E8000C8244BF
:100140008344AAF10107DA4501D100F02FF8AFF29C
:10015000090EBAE80F0013F0010F18BFFB1A43F0A5
:10016000010318476C2300008C230000103A24BFC1
:1001700078C878C1FAD8520724BF30C830C144BF0C
:1001800004680C607047000000230024002500264E
:10019000103A28BF78C1FBD8520728BF30C148BFEA
:1001A0000B6070471FB51FBD10B510BD02F059F9A7
:1001B0001146FFF7F7FF00F022FF02F077F903B4D2
:1001C000FFF7F2FF03BC02F07DF90000224B196833
:1001D0000868B0E8F00F80F30988BFF36F8F4FF025
:1001E000000080F311884EF00D0E704700000000F3
:1001F00006480068006880F3088862B661B6BFF3FD
:100200004F8FBFF36F8F00DF00BF00BF08ED00E02E
:10021000EFF30980BFF36F8F0F4B1A6820E9F00FDF
:10022000106008B54FF0BF0080F31188BFF34F8F07
:10023000BFF36F8F01F0B5FB4FF0000080F3118822
:10024000BDE8084019680868B0E8F00F80F3098835
:10025000BFF36F8F704700BF2C000020EFF30580C5
:100260007047000000210020674A126842F4803283
:10027000654B1A6000BF644A126802F40030491CE2
:1002800010B9B1F5A06FF6D15F4A126812F4003FC1
:1002900001D0012000E00020012842D15B4A126811
:1002A00042F01002594B1A601A46126822F00302FB
:1002B0001A601A46126842F002021A60524A5268E4
:1002C000514B5A601A4652685A601A46526842F4B4
:1002D00080625A601A46526822F47C125A601A46AA
:1002E000526842F4E8125A601A46126842F080726C
:1002F0001A6000BF444A126812F0007FFAD0424AE6
:10030000526822F00302404B5A601A46526842F08B
:1003100002025A6000BF3C4A526802F00C02082AEE
:10032000F9D1704710B5FFF79DFF10BD10B53648E5
:10033000006840F0010034490860084640683449CC
:1003400008403149486008460068324908402E4953
:1003500008600846006820F480200860084640686D
:1003600020F4FE0048604FF41F008860FFF7DAFFBA
:100370004FF000602849086010BD10B50021002032
:100380000022214B5B6803F00C0121B1042906D047
:10039000082928D107E0214B214C236027E01F4B7F
:1003A0001F4C236023E0184B5B6803F47010164B5E
:1003B0005B6803F48032022303EB904022B9194BAF
:1003C0004343174C23600DE00F4B5B6813F4003F71
:1003D00004D0144B4343124C236003E00F4B4343C0
:1003E0000F4C236003E00D4B0D4C236000BF00BF9A
:1003F000054B5B68C3F303130B4CE15C084B1B68B4
:10040000CB40074C236010BD00100240002002408A
:100410000000FFF8FFFFF6FE08ED00E000127A0092
:100420000000002000093D0004000020094880472A
:1004300009480047FEE7FEE7FEE7FEE7FEE7FEE7C6
:10044000FEE7FEE7FEE7FEE704480549054A064BDE
:10045000704700002D03000831010008B04500205E
:10046000B04B0020B0470020B047002010B5044634
:10047000CA48844208D10121042000F023FB002156
:10048000042000F01FFB46E0C548844208D101214A
:10049000082000F017FB0021082000F013FB3AE0D1
:1004A000C048844208D10121102000F00BFB00213C
:1004B000102000F007FB2EE0BB48844208D1012148
:1004C000202000F0FFFA0021202000F0FBFA22E0BB
:1004D000B648844208D10121402000F0F3FA0021FF
:1004E000402000F0EFFA16E0B148844208D1012123
:1004F000802000F0E7FA0021802000F0E3FA0AE013
:10050000AC48844207D10121801500F0DBFA0021BC
:10051000A01500F0D7FA10BD10B50121084600F073
:10052000D1FA0021012000F0CDFA10BD2DE9F041F3
:10053000024600250026002000230024002791F811
:1005400003C00CF00F0591F803C01CF0100F03D08E
:1005500091F802C04CEA050591F800C0BCF1000F0B
:1005600031D0146800202BE04FF0010C0CFA00F39E
:10057000B1F800C00CEA03069E4220D183004FF080
:100580000F0C0CFA03F7BC4305FA03FC4CEA040415
:1005900091F803C0BCF1280F06D14FF0010C0CFA02
:1005A00000FCC2F814C00AE091F803C0BCF1480F87
:1005B00005D14FF0010C0CFA00FCC2F810C0401C31
:1005C0000828D1D31460B1F800C0BCF1FF0F34DDAE
:1005D000546800202EE000F1080C4FF0010808FAE2
:1005E0000CF3B1F800C00CEA03069E4221D183004F
:1005F0004FF00F0C0CFA03F7BC4305FA03FC4CEA6E
:10060000040491F803C0BCF1280F05D100F1080CD7
:1006100008FA0CF8C2F8148091F803C0BCF1480F36
:1006200007D100F1080C4FF0010808FA0CF8C2F8E5
:100630001080401C0828CED35460BDE8F0814FF6EE
:10064000FF710180022181700421C1707047024650
:10065000002093680B4201D0012000E00020704789
:100660000146886880B2704702460020D3680B427A
:1006700001D0012000E0002070470146C86880B228
:10068000704701617047416170470AB1016100E044
:1006900041617047C16070474FF480320A43826104
:1006A0008161826182698269704702460020424B03
:1006B00018684FF68073184040EA021008433E4B1A
:1006C000186070473D49C8617047F0B50A4600237D
:1006D00000240021002500F00046B6F1004F02D1B1
:1006E000354EF16901E0344E7168C0F3034583B2C1
:1006F00000F44016B6F5401F08D121F070612E4E6F
:10070000766826F070662C4F7E6012E000F480164A
:10071000B6F5801F06D1032606FA05F4A14341F081
:10072000706106E0460D360103FA06F6B14341F06A
:10073000706122B1460D360103FA06F6314300F02E
:100740000046B6F1004F02D11B4EF16101E01A4E96
:100750007160F0BD30B500228B071C0F0F2303FA28
:1007600004F2154B08338C1053F824309343124C89
:1007700008348D1044F8253023468C1053F824306B
:100780008C07240F00FA04F423430B4C08348D101B
:1007900044F8253030BD0A49086070470008014020
:1007A000000C0140001001400014014000180140FD
:1007B000001C0140002001400000014000002042D8
:1007C000DC002042DB48006840F00100D9490860A5
:1007D00008464068D8490840D6494860084600683D
:1007E000D6490840D34908600846006820F48020B4
:1007F00008600846406820F4FE0048604FF41F007F
:1008000088607047CB49096821F48031C94A11607A
:100810001146096821F480211160B0F5803F03D0B2
:10082000B0F5802F0ED106E0C249096841F480314D
:10083000C04A116007E0BF49096841F4A021BD4AE0
:10084000116000E000BF00BF704710B501460022F4
:10085000002300204A11012A02D1B64C236806E089
:10086000022A02D1B34C236A01E0B24C636A01F060
:100870001F02012494401C4201D0012000E000200E
:1008800010BD70B500240025002600BF3120FFF701
:10089000DCFF0646641CB4F5A06F01D0002EF5D035
:1008A0003120FFF7D2FF08B1012500E000252846DE
:1008B00070BD014600209F4A106820F0F80040EA11
:1008C000C100106070479E490860704702460020D2
:1008D000984B586820F47C1042EA01031843954B6A
:1008E0005860704796490866704701460020914A53
:1008F000506820F003000843506070478D484068FE
:1009000000F00C007047014600208A4A506820F031
:10091000F00008435060704701460020854A506847
:1009200020F4E06008435060704701460020814A8F
:10093000506820F4605040EAC1005060704729B10F
:100940007C4A527A02437B4B5A7204E0794A527ACB
:100950008243784B5A7270477A4908607047014663
:100960000020744A506820F44040084350607047AB
:100970000021754A11706F4A82F82010012802D0B8
:10098000042808D103E001216F4A117004E0052119
:100990006D4A117000E000BF00BF70476B490860EE
:1009A00070476449096A0143624A116270476749A6
:1009B00044390860704730B500210022002400232C
:1009C0005C4D6D6805F00C0121B1042905D00829A2
:1009D00023D105E05E4D056022E05D4D05601FE01E
:1009E000544D6D6805F47012524D6D6805F48034F5
:1009F000022505EB92421CB9564D554305600BE0AC
:100A00004C4D6D6815F4003F03D0524D55430560C1
:100A100002E04F4D5543056002E04D4D056000BFBB
:100A200000BF444D6D6805F0F00109094A4D6B5C4B
:100A30000568DD4045603F4D6D6805F4E061090AD9
:100A4000454D6B5C4568DD4085603A4D6D6805F449
:100A50006051C90A404D6B5C4568DD40C560354D4D
:100A60006D6805F44041890B3C4D6B5CC568B5FB76
:100A7000F3F5056130BD29B12E4A526902432D4B71
:100A80005A6104E02B4A526982432A4B5A617047EB
:100A900029B1284A92690243264B9A6104E0254A0B
:100AA00092698243234B9A61704729B1214AD269E6
:100AB0000243204BDA6104E01E4AD26982431D4B97
:100AC000DA61704729B11B4AD2680243194BDA60D8
:100AD00004E0184AD2688243164BDA60704729B1A5
:100AE000144A12690243134B1A6104E0114A126955
:100AF0008243104B1A6170471449403908607047AF
:100B00000F49C86470470B49C87170470948406A6B
:100B100040F0807007494862704701460020054A4E
:100B200092680A4201D0012000E00020704701498C
:100B300088727047001002400000FFF8FFFFF6FEC9
:100B400000004242D800424220100240800442424B
:100B500000127A0000093D0014000020240000204B
:100B600010B50446FB48844209D101218803FFF7F0
:100B7000A9FF00214FF48040FFF7A4FF32E0F648C0
:100B8000844209D101214804FFF7A9FF00214FF455
:100B90000030FFF7A4FF25E0F048844209D101218D
:100BA0008804FFF79CFF00214FF48020FFF797FF98
:100BB00018E0EB48844209D10121C804FFF78FFFF8
:100BC00000214FF40020FFF78AFF0BE0E548844244
:100BD00008D101210805FFF782FF00214FF48010A2
:100BE000FFF77DFF10BD2DE9F04786B005460E46A4
:100BF0000024A24600BFA1460027B08900B100BF73
:100C00002F462C8A4CF6FF700440F08804432C8257
:100C1000AC894EF6F3100440B088318908437189DD
:100C200008430443AC81AC8A4FF6FF400440B089CE
:100C30000443AC8201A8FFF7BEFEC648874202D13A
:100C4000DDF810A001E0DDF80CA0A88910F4004F39
:100C500008D00AEBCA0000EB0A1031684900B0FB6B
:100C6000F1F807E00AEBCA0000EB0A1031688900CE
:100C7000B0FBF1F86420B8FBF0F004012009642116
:100C800001FB1089A88910F4004F08D0322000EB36
:100C9000C900B0FBF1F000F00700044308E0322087
:100CA00000EB09106421B0FBF1F000F00F000443E9
:100CB0002C8106B0BDE8F0874FF416510160002189
:100CC0008180C18001810C21418100218181704797
:100CD00010B502460020108A4FF2FF0318400B881F
:100CE0004C8823438C882343CC88234318431082A9
:100CF00010BD0021018041808180C180704721B1F9
:100D0000828942F40052828104E082894DF6FF73A9
:100D10001A4082817047F0B5034600240026002562
:100D20000020A1F510676A3F00D100BF1846C1F34B
:100D3000421401F01F06012707FA06F5012C01D124
:100D40000C3004E0022C01D1103000E014301AB154
:100D500007682F43076002E00768AF430760F0BDF4
:100D60001AB1838A0B43838202E0838A8B43838296
:100D70007047028A4FF6F0731A400282028A0A43D1
:100D80000282704782894FF2FF731A408281828902
:100D90000A438281704721B1828942F00202828136
:100DA00004E082894FF6FD731A4082817047028AFF
:100DB0004FF6DF731A400282028A0A4302827047AA
:100DC00021B1028A42F48042028204E0028A4BF698
:100DD000FF731A4002827047C1F308028280704795
:100DE00001468888C0F308007047818941F00101FD
:100DF00081817047028BD2B20283028B42EA0122C8
:100E000002837047028B02F47F420283028B0A4303
:100E10000283704721B1828A42F02002828204E07C
:100E2000828A4FF6DF731A408282704721B1828A2C
:100E300042F01002828204E0828A4FF6EF731A4079
:100E40008282704721B1828A42F00802828204E0E5
:100E5000828A4FF6F7731A408282704721B18289E5
:100E600042F40042828103E08289C2F30E02828151
:100E7000704721B1828A42F40062828204E0828A51
:100E80004FF2FF731A4082827047828A4FF6FB73DB
:100E90001A408282828A0A438282704721B1828A02
:100EA00042F00202828204E0828A4FF6FD731A4009
:100EB0008282704702460020B1F5007F00D100BF5A
:100EC00013880B4201D0012000E00020704701F49C
:100ED0000072B2F5007F00D100BFCA4302807047A4
:100EE00070B502460024002300250020A1F51066FD
:100EF0006A3E00D100BFC1F3421501F01F03012675
:100F000006FA03F3012D02D19689334006E0022D43
:100F100002D1168A334001E0968A33400C12012632
:100F200006FA04F41688344013B10CB1012000E035
:100F3000002070BD10B500220023A1F510646A3CAA
:100F400000D100BF0A1201249440A3B2DC43048004
:100F500010BD00000038014000440040004800403F
:100F6000004C00400050004008B501214820FFF728
:100F70008FFD2020ADF8000002208DF80200102027
:100F80008DF8030069464148FFF7D0FA69464048AA
:100F9000FFF7CCFA08BDFFF7E7FF15E020213C483A
:100FA000FFF771FB20213948FFF76BFB322000F07F
:100FB0004CFC20213648FFF764FB20213348FFF723
:100FC00062FB322000F041FCE8E7FFF7CDFF15E0BF
:100FD00020212F48FFF757FB20212C48FFF751FB1A
:100FE000322000F032FC20212948FFF74AFB202163
:100FF0002648FFF748FB322000F027FCE8E71CB545
:101000004FF4165000F06CF8224800684FF47A72E2
:10101000B0FBF2F1B1F1807F00D31DE021F07F4001
:10102000401E4FF0E022506150170F22002807DACF
:1010300013071D0E184B00F00F04241F1D5503E06D
:1010400013071C0E154B1C5400BF00204FF0E0226C
:1010500090610720106100BF002002210346B222E8
:10106000CDE900100EA1AFF29D0000F0CFF90020F5
:1010700003210346B222CDE900100BA1AFF2E90033
:1010800000F0C4F900F0F0FD00BFFEE7000C0140E5
:10109000001801400000002018ED00E000E400E02E
:1010A0006D795461736B00006D795461736B32001C
:1010B000704700BFFEE700BFFEE700BFFEE700BFCE
:1010C000FEE710B5FFF782F810BD704710B5FFF7C7
:1010D0009FF810BD10B500F08EF801F09FF910BD1B
:1010E00010B586B00446012144F20400FFF7D0FC9D
:1010F0002448FFF735FD4FF40070ADF814000320CD
:101100008DF8160018208DF8170005A91E48FFF766
:101110000DFA4FF48060ADF8140004208DF817002C
:1011200005A91948FFF702FA01940020ADF808005C
:10113000ADF80A00ADF80C00ADF810000C20ADF8C9
:101140000E0001A90F48FFF74EFD012240F2255184
:101150000C48FFF7E0FD01210A48FFF7D0FD06B07B
:1011600010BD70B504460D46E1B20648FFF734FEE7
:1011700000BF40210348FFF79DFE0028F9D020461C
:1011800070BD0000003801400008014030B51E4825
:1011900000681E4AB0FBF2F1B1F1807F01D301205B
:1011A0001DE021F07F40401E4FF0E02250615017BB
:1011B0000F22002807DA13071D0E154B00F00F044D
:1011C000241F1D5503E013071C0E124B1C5400BFB7
:1011D00000204FF0E022906107201061002008B14C
:1011E00000BFFEE730BD0C49086000BF0A4909682E
:1011F0000029FBD170470848006820B10648006804
:10120000401E0549086070470000002040420F0062
:1012100018ED00E000E400E02800002000F10801E3
:1012200041604FF0FF31816000F10801C160016150
:1012300000210160704700210161704742684A60E7
:1012400093688B60936859609160086103685B1CC8
:101250000360704710B502460B685C1C01D1106931
:1012600007E002F1080000E04068446824689C42FE
:10127000FAD944684C604C68A160886041600A619A
:101280001468641C146010BD01460A69D1E901307C
:101290009860D1E9010358605068884201D188689C
:1012A0005060002008611068401E10601068704790
:1012B00010B5002407E004EB8401FE4A02EB810034
:1012C000FFF7ACFF641C052CF5D3FB48FFF7A6FF26
:1012D000FA48FFF7A3FFFA48FFF7A0FFF948FFF726
:1012E0009DFFF948FFF79AFFF348F8490860F34873
:1012F000F749086010BD10B5044601F072F8F548D2
:101300000068401CF3490860F348006840B9F2489F
:1013100004600846006801280DD1FFF7C9FF0AE004
:10132000EE48006838B9EC480068C06AE16A884253
:1013300001D8E9480460EA480068401CE8490860B0
:1013400094F82C1001208840E64909680843E549D3
:101350000860E16A01EB8101D64A02EB8100211DA0
:10136000FFF76CFF01F04CF8DC48006868B1DA4820
:101370000068C06AE16A884207D24FF08050DA49BB
:101380000860BFF34F8FBFF36F8F10BD2DE9FF5F74
:1013900080460E469146DDE90E7A109CA9F10100C7
:1013A000216B01EB800B2BF0070B002507E0715D33
:1013B00004F134004155705D00B902E06D1C102D40
:1013C000F5D300BF002143200155052F00D304278A
:1013D000E762201DFFF72FFF04F11800FFF72BFF36
:1013E0002461C7F10500A06164620020606484F894
:1013F000480041465846039A00F0C7FF2060BAF102
:10140000000F01D0CAF80040BDE8FF9F2DE9FF4F53
:1014100085B0804689461746DDE912ABB80000F07A
:101420002CFF064656B14C2000F027FF04460CB1B5
:10143000266304E0304600F073FF00E000247CB136
:101440000020CDE900ABCDE902403A46494640468E
:10145000089BFFF79BFF2046FFF74DFF012501E0AA
:101460004FF0FF35284609B0BDE8F08F974909686D
:10147000096809B9012100E0002121B14FF0FF31D5
:101480009A4A116006E091490968C968C868974A94
:1014900041681160704710B50446206B00F040FFB2
:1014A000204600F03DFF10BD70B5054600F099FFE5
:1014B00015B98948006800E028460446201DFFF75A
:1014C000E3FE78B9E06A00EB80007A4951F8200029
:1014D00040B994F82C100120884082490968814362
:1014E00080480160A06A18B104F11800FFF7CCFE33
:1014F0007B480068401C7A4908607748006884424D
:1015000009D1211D6F48FFF799FE79480068401CFA
:101510007749086009E06F480068401E6D4908601F
:101520002046FFF7B8FFFFF7A1FF00F069FF6B4807
:10153000006858B168480068844207D14FF0805075
:1015400069490860BFF34F8FBFF36F8F70BD2DE9FE
:10155000F041002767480068002863D166480068AA
:10156000451C654805608DB95848D0F8008058483A
:101570000068564908605648C0F800805F48006817
:10158000401C5E490860FFF771FF00BF57480068C4
:1015900085423BD300BF4D480068006808B9012070
:1015A00000E0002020B14FF0FF30504908602CE0EF
:1015B00046480068C068C4686668B54202D24B48B5
:1015C000066022E0201DFFF75FFEA06A18B104F15B
:1015D0001800FFF759FE94F82C100120884041496B
:1015E000096808433F490860E16A01EB8101314A1B
:1015F00002EB8100211DFFF721FE3749E06A0968EF
:10160000C96A8842C7D30127C5E700BF32480068CE
:10161000C06A00EB8000274951F82000012800D95A
:10162000012704E036480068401C35490860354809
:10163000006800B101273846BDE8F08170B500248C
:10164000002600F0CEFE2B480068401E29490860A5
:101650000846006800287BD11E480068002877D023
:1016600024E01748C068C46804F11800FFF70CFEB6
:10167000201DFFF709FE94F82C100120884019491D
:101680000968084317490860E16A01EB8101094ACA
:1016900002EB8100211DFFF7D1FD0F49E06A0968C7
:1016A000C96A884202D301201649086004480068CC
:1016B00050BB2AE084000020E8000020FC0000204D
:1016C00010010020240100203801002060000020CB
:1016D00064000020340000202C0000204000002086
:1016E000500000203C00002004ED00E054000020E9
:1016F000300000205C000020380000204C0000205A
:10170000440000204800002001E0012000E000200B
:101710000028A6D00CB1FFF7A9FEFD48056865B109
:1017200000BFFFF714FF10B10120FA4908606D1ED9
:10173000002DF6D10020F6490860F648006838B15F
:1017400001263007F4490860BFF34F8FBFF36F8F56
:1017500000F056FE304670BD2DE9F04105460E46BC
:10176000EE480768EE480068001DFFF78DFD50B990
:10177000EB48006890F82C1001208840E94909687E
:101780008143E8480160681C07D136B1E44801682C
:10179000091DE548FFF752FD1AE07C19E048006892
:1017A0004460BC4207D2DE480168091DDF4800687A
:1017B000FFF750FD0CE0DA480168091DDC480068BD
:1017C000FFF748FDDB480068844201D2D948046035
:1017D000BDE8F081D8480068401CD74908607047D0
:1017E0002DE9F047044688464FF00009FFF7F2FF65
:1017F000CA480668206800EB08052068B04207D98F
:101800002068A8420BD9B54209D94FF0010906E07A
:101810002068A84201D8B54201D94FF001092560DE
:10182000B9F1000F03D0A81B0021FFF795FFFFF7C8
:1018300005FF07463FB94FF08050B7490860BFF336
:101840004F8FBFF36F8FBDE8F08770B5044600255A
:1018500044B1FFF7BFFF00212046FFF77DFFFFF7F0
:10186000EDFE05463DB94FF08050AB490860BFF32F
:101870004F8FBFF36F8F70BD70B5044600F0B1FDA0
:1018800014B9A748006800E020460646F56A00F053
:10189000B7FD284670BD70B5024600BFBF25EFF307
:1018A000118485F31188BFF34F8FBFF36F8F00BF93
:1018B000214612B99A4C246800E014462346D86A9F
:1018C00000BF81F3118800BF70BD2DE9F04780464D
:1018D0000D464FF00009052D00D3042500F081FDD1
:1018E000B8F1000F02D18E48006800E0404604467F
:1018F000E66AAE4251D0B5420BD9894800688442AD
:101900000DD087480068C06AA84208D84FF0010986
:1019100005E083480068844201D14FF00109E76A7D
:10192000E562A06910F0004F02D1C5F10500A06189
:1019300007EB8701814A02EB81016069884201D18E
:10194000012000E00020E0B1201DFFF79DFC30B930
:101950000120B8407349096881437248016094F8D6
:101960002C10012088406F49096808436D490860C0
:10197000E16A01EB8101714A02EB8100211DFFF751
:101980005DFCB9F1000F07D04FF08050624908604C
:10199000BFF34F8FBFF36F8F00BF00F031FDBDE885
:1019A000F0876548006818B101205A4908601DE0B9
:1019B0000020584908605B480068B0FA80F0C0F128
:1019C0001F0101EB81025D4B03EB8200426852680C
:1019D000426000F108024368934202D142685268B3
:1019E00042604268D2684E4B1A6000BF704770B5C3
:1019F000054600F0F6FC15B94948006800E02846A5
:101A00000446201DFFF740FC78B9E06A00EB800037
:101A10004A4951F8200040B994F82C100120884020
:101A20004049096881433F480160A06A18B104F148
:101A30001800FFF729FC211D3B48FFF7FFFB00F0D2
:101A4000DFFC3F48006828B100F0CBFCFFF70EFD3B
:101A500000F0D6FC32480068844217D1384800684C
:101A600040B14FF080502C490860BFF34F8FBFF357
:101A70006F8F0BE02C48006832490968884203D117
:101A800000202749086001E0FFF78BFF70BD10B50B
:101A9000014600200A46244C5369A34201D1012388
:101AA00000E0002373B1284C936AA34201D10123C3
:101AB00000E0002333B9936A0BB9012300E000234F
:101AC00003B1012010BD70B505462C46F4B314488F
:101AD000006884424BD000F084FC2046FFF7D7FF1B
:101AE000A8B3201DFFF7D0FB94F82C1001208840EC
:101AF0000C49096808430B490860E16A01EB810160
:101B00000E4A02EB8100211DFFF798FB04491FE0FC
:101B1000440000204800002004ED00E038000020D0
:101B20002C0000203C000020380100206400002030
:101B300060000020540000205C0000208400002091
:101B40004000002034000020100100200FE00CE0D5
:101B5000E06A0968C96A884207D34FF08050FE499D
:101B60000860BFF34F8FBFF36F8F00F049FC70BD6B
:101B70002DE9F04106460027344600BFBF21EFF3B0
:101B8000118081F31188BFF34F8FBFF36F8F00BFB8
:101B900005462046FFF77BFF20B3F0480068E0B918
:101BA000EF49E06A0968C96A884200D30127201D0D
:101BB000FFF76AFB94F82C1001208840E949096876
:101BC0000843E8490860E16A01EB8101E64A02EB5B
:101BD0008100211DFFF732FB04E004F11801E34806
:101BE000FFF72CFB00BF85F3118800BF3846BDE826
:101BF000F08170B523E0FFF7EDFDDD48006808B91E
:101C0000012000E000200546FFF718FDBDB900F0F7
:101C1000E8FBD748C068C468201DFFF735FBD548EE
:101C20000068401ED3490860D3480068401ED2496E
:101C3000086000F0E5FB2046FFF72DFC00BFCE4812
:101C400000680028D7D170BD00BFFFF7D2FFC6489B
:101C500000680128F9D94FF08050BF490860BFF3F0
:101C60004F8FBFF36F8FF0E71CB5C44800210B46C0
:101C70008022CDE90010C2A1C348FFF7C7FB04468C
:101C8000012C14D100BFBF2080F31188BFF34F8F08
:101C9000BFF36F8F00BF4FF0FF30BC4908600120D9
:101CA000BB4908600020BB49086000F084FB1CBDF4
:101CB00010B500BFBF2080F31188BFF34F8FBFF373
:101CC0006F8F00BF0020B249086000F089FB10BD93
:101CD000B049086870470021AE4A10687047A548AF
:101CE00000687047014611B99D48006800E0084649
:101CF000024602F13400704770B505460C4698481C
:101D0000016818312846FFF7A5FA01212046FFF7A0
:101D100023FD70BD70B506460C46154644F00040E4
:101D20008F49096888618E48016818313046FFF78D
:101D300085FA01212846FFF70FFD70BD70B50646F4
:101D4000F068C46804F11800FFF79EFA8348006841
:101D5000A8B9201DFFF798FA94F82C1001208840AC
:101D60008049096808437F490860E16A01EB810105
:101D70007D4A02EB8100211DFFF760FA04E004F1C7
:101D800018017A48FFF75AFA7549E06A0968C96A82
:101D9000884204D9012501207F49086000E0002520
:101DA000284670BD2DE9F04105460F4647F000403A
:101DB0002860EC682846FFF767FA201DFFF764FAF1
:101DC00094F82C1001208840664909680843654949
:101DD0000860E16A01EB8101634A02EB8100211D89
:101DE000FFF72CFA5E49E06A0968C96A884204D99B
:101DF000012601206849086000E000263046BDE861
:101E0000F08166490968016062490968416070476C
:101E100070B504460D4600F0E4FA5E480268286892
:101E2000401C01D1002619E05C49206809688842FD
:101E300004D06068904201D801260FE06068101A53
:101E40002968884209D228686168511A401A2860B6
:101E50002046FFF7D6FF002600E0012600F0D0FA6A
:101E6000304670BD01204C49086070473C49096804
:101E700088693B490968C96AC1F10501384A126895
:101E80009161704770B506460D4600F0AAFA3448D5
:101E90000068406C88B901203149096881F8480020
:101EA0005DB101212846FFF757FC4FF080502A49C9
:101EB0000860BFF34F8FBFF36F8F00F0A1FA00F0FF
:101EC00090FA27480068446C4CB126B100202449A0
:101ED0000968486403E0601E2149096848640020DD
:101EE0001F49096881F8480000F08AFA204670BD51
:101EF0002DE9F0410746884614461D4600F071FA68
:101F00001748006890F84800022818D0144909685A
:101F100001F14400496CB94301600120104909688E
:101F200081F848005DB101212846FFF715FC4FF00C
:101F3000805009490860BFF34F8FBFF36F8F00F0E7
:101F40005FFA00F04EFA1CB105480068406C206052
:101F50000348006824E0000004ED00E05C0000207D
:101F60002C0000203C0000208400002010010020F4
:101F70002401002034000020300000205800002000
:101F800049444C4500000000491C00085400002052
:101F90004000002038000020480000204C000020B5
:101FA00090F84800012801D1002608E0A1490968FD
:101FB00001F14400496C21EA08010160012600207A
:101FC0009C49096881F8480000F01AFA3046BDE8DB
:101FD000F0812DE9F04781460D4616461F464FF029
:101FE000010A4C4600F0FDF90FB1606C386094F8BE
:101FF0004880022084F84800052E17D2DFE806F05A
:102000001503070B0D00606C284360640EE0606CE4
:10201000401C60640AE0656408E0B8F1020F01D07A
:10202000656401E04FF0000A00E000BF00BFB8F1B6
:10203000010F22D1201DFFF727F994F82C10012061
:1020400088407D49096808437B490860E16A01EBE3
:1020500081017A4A02EB8100211DFFF7EFF87549F3
:10206000E06A0968C96A884207D94FF0805074490C
:102070000860BFF34F8FBFF36F8F00F0C1F9504678
:10208000BDE8F0872DE9F84F83460D4616461F46FA
:10209000DDF828A0012000905C4600BFBF21EFF3CF
:1020A000118081F31188BFF34F8FBFF36F8F00BF93
:1020B00081460FB1606C386094F84880022084F843
:1020C0004800052E17D2DFE806F01503070B0D00B8
:1020D000606C284360640EE0606C401C60640AE041
:1020E000656408E0B8F1020F01D0656401E00020EA
:1020F000009000E000BF00BFB8F1010F2DD15148A2
:102100000068A8B9201DFFF7BFF894F82C10012033
:10211000884049490968084347490860E16A01EB7A
:102120008101464A02EB8100211DFFF787F804E098
:1021300004F118014448FFF781F83E49E06A096854
:10214000C96A884209D9BAF1000F03D00120CAF840
:10215000000002E001203D49086000BF89F31188BA
:1021600000BF0098BDE8F88F2DE9F04105460E4606
:102170002C4600BFBF21EFF3118081F31188BFF31C
:102180004F8FBFF36F8F00BF074694F8488002203F
:1021900084F84800606C401C6064B8F1010F2AD1DB
:1021A00028480068A8B9201DFFF76EF894F82C1095
:1021B000012088402049096808431F490860E16AF6
:1021C00001EB81011D4A02EB8100211DFFF736F86A
:1021D00004E004F118011C48FFF730F81549E06AE3
:1021E0000968C96A884206D916B10120306002E048
:1021F00001201649086000BF87F3118800BFBDE8C1
:10220000F08170B5054615B90A48006800E0284617
:10221000064600F0E6F896F84800022804D10020AF
:1022200086F84800012400E0002400F0E9F8204688
:1022300070BD00002C0000203C0000208400002025
:1022400004ED00E05C0000201001002048000020A8
:10225000434A22F00700434A10600022414B5A6073
:1022600044F2F832404B5A6000221A60014644F2B0
:10227000F8324A601A460A6070472DE9F041044678
:102280004FF00008FFF7A6FA3848006820B9FFF7BA
:10229000DFFF01203549086044B1083414F0070F0E
:1022A00004D004F00700C0F108000444002C32D030
:1022B00044F2F83084422ED22A4F3846056801E0B5
:1022C0002F462D686868A04202D228680028F7D1FE
:1022D000254885421FD0386800F108082868386012
:1022E0006868001B102810D92E196868001B7060E0
:1022F0006C6071681B4800E00068026852688A429E
:10230000FAD302683260066000BF1949686809683C
:10231000081A17490860FFF791F94046BDE8F081B7
:1023200070B506463546B6B1083D2C46FFF752FA61
:1023300061680C4800E00068026852688A42FAD37B
:102340000268226004600A49606809680844084914
:102350000860FFF773F970BD054800687047704763
:102360005401002070000020780000206C00002044
:102370006800002000BFBF2080F31188BFF34F8F9B
:10238000BFF36F8F00BF00BFFEE7001F4FF08073E9
:102390000360001F21F001030360001F2B4B03604B
:1023A000143802602038704729484FF0E021486116
:1023B00007200861704710B52648006840F47F0088
:1023C000244908600846006840F07F400860FFF735
:1023D000EBFF002020490860FDF70AFF002010BD38
:1023E000704700BFBF2080F31188BFF34F8FBFF34A
:1023F0006F8F00BF18480068401C1749086070477D
:1024000015480068401E144908600846006820B955
:10241000002080F3118800BF00BF704710B500BFD7
:10242000BF2080F31188BFF34F8FBFF36F8F00BFC2
:10243000FFF78DF820B14FF0805006491C39086035
:1024400000BF002080F3118800BF10BD7523000875
:102450003F19010020ED00E0800000207047704728
:102460007047754600F028F8AE46050069465346A9
:1024700020F00700854618B020B5FDF7E5FFBDE860
:1024800020404FF000064FF000074FF000084FF0DB
:10249000000B21F00701AC46ACE8C009ACE8C0096C
:1024A000ACE8C009ACE8C0098D4670470446AFF3FC
:1024B00000802046FDF783FE004870474C45002011
:1024C0007047000001491820ABBEFEE7260002005D
:1024D000F024000800000020840000006C010008C7
:1024E00074250008840000202C4B0000880100089F
:1024F00000A24A04000000000000000001020304E2
:102500000607080900000000010203040102030499
:102510000607080902040608000000000000000089
:1025200000000000000000000000000000000000AB
:10253000000000000000000000000000000000009B
:10254000000000000000000000000000000000008B
:102550000000000000000000F84300000000000040
:10256000000000000000000000000000000000006B
:04257000AAAAAAAABF
:0400000508000131BD
:00000001FF
