:020000040800F2
:10000000F8F90020A5030008A1320008A332000877
:10001000A7320008AB320008AF3200080000000031
:100020000000000000000000000000004501000882
:10003000BB3200080000000089010008A12E000862
:10004000BF030008BF030008BF030008BF03000888
:10005000BF030008BF030008BF030008BF03000878
:10006000BF030008BF030008BF030008BF03000868
:10007000BF030008BF030008BF030008BF03000858
:10008000BF030008BF030008BF030008BF03000848
:10009000BF030008BF030008BF030008BF03000838
:1000A000BF030008BF030008BF030008BF03000828
:1000B0002F300008BF030008BF030008BF0300087B
:1000C000BF030008BF030008BF030008BF03000808
:1000D000BF030008BF030008BF030008BF030008F8
:1000E000BF030008BF030008BF030008BF030008E8
:1000F000BF030008BF030008BF030008BF030008D8
:10010000BF030008BF030008BF030008BF030008C7
:10011000BF030008BF030008BF030008BF030008B7
:10012000BF030008BF030008BF030008BF030008A7
:10013000DFF80CD003F07AF9004800475531000889
:10014000F8F90020224B19680868B0E8F00F80F336
:100150000988BFF36F8F4FF0000080F311884EF0D5
:100160000D0E70470000000006480068006880F32C
:10017000088862B661B6BFF34F8FBFF36F8F00DFA1
:1001800000BF00BF08ED00E0EFF30980BFF36F8F01
:100190000F4B1A6820E9F00F106008B54FF0BF0050
:1001A00080F31188BFF34F8FBFF36F8F02F068F9B0
:1001B0004FF0000080F31188BDE808401968086816
:1001C000B0E8F00F80F30988BFF36F8F704700BF6E
:1001D00028000020EFF30580704700000021002078
:1001E000674A126842F48032654B1A6000BF644A65
:1001F000126802F40030491C10B9B1F5A06FF6D1B5
:100200005F4A126812F4003F01D0012000E0002094
:10021000012842D15B4A126842F01002594B1A6021
:100220001A46126822F003021A601A46126842F057
:1002300002021A60524A5268514B5A601A4652687A
:100240005A601A46526842F480625A601A465268EE
:1002500022F47C125A601A46526842F4E8125A603C
:100260001A46126842F080721A6000BF444A12684F
:1002700012F0007FFAD0424A526822F00302404B4B
:100280005A601A46526842F002025A6000BF3C4A65
:10029000526802F00C02082AF9D1704710B5FFF736
:1002A0009DFF10BD10B53648006840F0010034498C
:1002B00008600846406834490840314948600846AB
:1002C0000068324908402E4908600846006820F45A
:1002D000802008600846406820F4FE0048604FF423
:1002E0001F008860FFF7DAFF4FF0006028490860C0
:1002F00010BD10B5002100200022214B5B6803F0E7
:100300000C0121B1042906D0082928D107E0214B8E
:10031000214C236027E01F4B1F4C236023E0184B28
:100320005B6803F47010164B5B6803F480320223A1
:1003300003EB904022B9194B4343174C23600DE067
:100340000F4B5B6813F4003F04D0144B4343124C33
:10035000236003E00F4B43430F4C236003E00D4B3E
:100360000D4C236000BF00BF054B5B68C3F3031354
:100370000B4CE15C084B1B68CB40074C236010BD65
:1003800000100240002002400000FFF8FFFFF6FED0
:1003900008ED00E000127A000000002000093D0096
:1003A000040000200648804706480047FEE7FEE7B5
:1003B000FEE7FEE7FEE7FEE7FEE7FEE7FEE7FEE715
:1003C000A50200083101000831490143314A11609A
:1003D000704770B5002100230F22C4780CB32D4C58
:1003E000246804F4E064C4F5E064210AC1F1040364
:1003F000CA40447804FA03F1847814402143090187
:10040000254C0678A155047804F01F050124AC4062
:1004100005786D114FF0E02606EB8505C5F8004123
:1004200009E0047804F01F050124AC401B4D067858
:10043000761145F8264070BD194A0A400243154B13
:100440001B1F1A60704739B1124A121D126802430D
:10045000104B1B1D1A6006E00E4A121D12688243E3
:100460000C4B1B1D1A607047042808D14FF0E02187
:10047000096941F004014FF0E022116107E04FF0FB
:10048000E021096921F004014FF0E0221161704779
:100490000000FA050CED00E000E400E080E100E07F
:1004A00080FFFF1F10B50446CA48844208D10121CD
:1004B000042000F023FB0021042000F01FFB46E095
:1004C000C548844208D10121082000F017FB002113
:1004D000082000F013FB3AE0C048844208D1012113
:1004E000102000F00BFB0021102000F007FB2EE095
:1004F000BB48844208D10121202000F0FFFA0021EE
:10050000202000F0FBFA22E0B648844208D1012105
:10051000402000F0F3FA0021402000F0EFFA16E04E
:10052000B148844208D10121802000F0E7FA00217F
:10053000802000F0E3FA0AE0AC48844207D10121B0
:10054000801500F0DBFA0021A01500F0D7FA10BDED
:1005500010B50121084600F0D1FA0021012000F079
:10056000CDFA10BD2DE9F0410246002500260020FD
:1005700000230024002791F803C00CF00F0591F828
:1005800003C01CF0100F03D091F802C04CEA05051F
:1005900091F800C0BCF1000F31D0146800202BE0AE
:1005A0004FF0010C0CFA00F3B1F800C00CEA03069E
:1005B0009E4220D183004FF00F0C0CFA03F7BC438E
:1005C00005FA03FC4CEA040491F803C0BCF1280FBF
:1005D00006D14FF0010C0CFA00FCC2F814C00AE07E
:1005E00091F803C0BCF1480F05D14FF0010C0CFA93
:1005F00000FCC2F810C0401C0828D1D31460B1F828
:1006000000C0BCF1FF0F34DD546800202EE000F183
:10061000080C4FF0010808FA0CF3B1F800C00CEA1E
:1006200003069E4221D183004FF00F0C0CFA03F712
:10063000BC4305FA03FC4CEA040491F803C0BCF186
:10064000280F05D100F1080C08FA0CF8C2F8148044
:1006500091F803C0BCF1480F07D100F1080C4FF02E
:10066000010808FA0CF8C2F81080401C0828CED304
:100670005460BDE8F0814FF6FF7101800221817066
:100680000421C17070470246002093680B4201D0DC
:10069000012000E0002070470146886880B2704762
:1006A00002460020D3680B4201D0012000E0002068
:1006B00070470146C86880B2704701617047416168
:1006C00070470AB1016100E041617047C160704745
:1006D0004FF480320A43826181618261826982695A
:1006E000704702460020424B18684FF6807318404E
:1006F00040EA021008433E4B186070473D49C8610C
:100700007047F0B50A46002300240021002500F0C0
:100710000046B6F1004F02D1354EF16901E0344E8A
:100720007168C0F3034583B200F44016B6F5401F6C
:1007300008D121F070612E4E766826F070662C4F3D
:100740007E6012E000F48016B6F5801F06D1032605
:1007500006FA05F4A14341F0706106E0460D36014A
:1007600003FA06F6B14341F0706122B1460D36013D
:1007700003FA06F6314300F00046B6F1004F02D10D
:100780001B4EF16101E01A4E7160F0BD30B50022E0
:100790008B071C0F0F2303FA04F2154B08338C1040
:1007A00053F824309343124C08348D1044F825300C
:1007B00023468C1053F824308C07240F00FA04F4DD
:1007C00023430B4C08348D1044F8253030BD0A49C2
:1007D0000860704700080140000C01400010014013
:1007E0000014014000180140001C0140002001409D
:1007F0000000014000002042DC002042DB4800688D
:1008000040F00100D949086008464068D8490840CE
:10081000D649486008460068D6490840D349086070
:100820000846006820F4802008600846406820F4EC
:10083000FE0048604FF41F0088607047CB4909688C
:1008400021F48031C94A11601146096821F48021E0
:100850001160B0F5803F03D0B0F5802F0ED106E0D7
:10086000C249096841F48031C04A116007E0BF49BC
:10087000096841F4A021BD4A116000E000BF00BF3B
:10088000704710B501460022002300204A11012ABA
:1008900002D1B64C236806E0022A02D1B34C236A87
:1008A00001E0B24C636A01F01F02012494401C4233
:1008B00001D0012000E0002010BD70B5002400250B
:1008C000002600BF3120FFF7DCFF0646641CB4F5AC
:1008D000A06F01D0002EF5D03120FFF7D2FF08B174
:1008E000012500E00025284670BD014600209F4AF2
:1008F000106820F0F80040EAC100106070479E497F
:100900000860704702460020984B586820F47C101D
:1009100042EA01031843954B5860704796490866B0
:10092000704701460020914A506820F003000843B8
:10093000506070478D48406800F00C0070470146D9
:1009400000208A4A506820F0F00008435060704749
:1009500001460020854A506820F4E060084350605A
:10096000704701460020814A506820F4605040EAF8
:10097000C1005060704729B17C4A527A02437B4BD8
:100980005A7204E0794A527A8243784B5A7270471D
:100990007A490860704701460020744A506820F484
:1009A00040400843506070470021754A11706F4AFB
:1009B00082F82010012802D0042808D103E0012188
:1009C0006F4A117004E005216D4A117000E000BF0C
:1009D00000BF70476B49086070476449096A01436A
:1009E000624A11627047674944390860704730B500
:1009F00000210022002400235C4D6D6805F00C01ED
:100A000021B1042905D0082923D105E05E4D0560F8
:100A100022E05D4D05601FE0544D6D6805F47012D5
:100A2000524D6D6805F48034022505EB92421CB9E5
:100A3000564D554305600BE04C4D6D6815F4003F75
:100A400003D0524D5543056002E04F4D55430560BC
:100A500002E04D4D056000BF00BF444D6D6805F0DC
:100A6000F00109094A4D6B5C0568DD4045603F4D6A
:100A70006D6805F4E061090A454D6B5C4568DD4031
:100A800085603A4D6D6805F46051C90A404D6B5C54
:100A90004568DD40C560354D6D6805F44041890B02
:100AA0003C4D6B5CC568B5FBF3F5056130BD29B104
:100AB0002E4A526902432D4B5A6104E02B4A526977
:100AC00082432A4B5A61704729B1284A92690243EE
:100AD000264B9A6104E0254A92698243234B9A612E
:100AE000704729B1214AD2690243204BDA6104E000
:100AF0001E4AD26982431D4BDA61704729B11B4AF5
:100B0000D2680243194BDA6004E0184AD268824383
:100B1000164BDA60704729B1144A12690243134B2D
:100B20001A6104E0114A12698243104B1A6170473E
:100B300014494039086070470F49C86470470B4931
:100B4000C87170470948406A40F0807007494862A0
:100B5000704701460020054A92680A4201D00120F0
:100B600000E0002070470149887270470010024081
:100B70000000FFF8FFFFF6FE00004242D8004242AC
:100B8000201002408004424200127A0000093D0019
:100B9000140000202400002010B50446FE488442C2
:100BA00008D10121C014FFF7A9FF0021E014FFF7CD
:100BB000A5FFC4E0B4F1804F08D101210846FFF73A
:100BC000AAFF00210120FFF7A6FFB8E0F348844206
:100BD00008D101210220FFF79EFF00210220FFF72C
:100BE0009AFFACE0EE48844208D101210420FFF7CF
:100BF00092FF00210420FFF78EFFA0E0E948844225
:100C000008D101210820FFF786FF00210820FFF707
:100C100082FF94E0E448844208D101211020FFF7CC
:100C20007AFF00211020FFF776FF88E0DF4884423A
:100C300008D101212020FFF76EFF00212020FFF7BF
:100C40006AFF7CE0DA48844208D101214014FFF7B2
:100C500055FF00216014FFF751FF70E0D548844232
:100C600009D10121C804FFF749FF00214FF40020FA
:100C7000FFF744FF63E0D048844209D10121080511
:100C8000FFF73CFF00214FF48010FFF737FF56E0DD
:100C9000CA48844209D101214805FFF72FFF0021EE
:100CA0004FF40010FFF72AFF49E0C548844208D1FD
:100CB00001214020FFF72FFF00214020FFF72BFFED
:100CC0003DE0C048844208D101218020FFF723FF86
:100CD00000218020FFF71FFF31E0BB48844208D18C
:100CE00001218015FFF717FF0021A015FFF713FF63
:100CF00025E0B648844209D101210804FFF7FEFE31
:100D000000214FF48030FFF7F9FE18E0B04884422C
:100D100009D101214804FFF7F1FE00214FF4003012
:100D2000FFF7ECFE0BE0AB48844208D101218804B8
:100D3000FFF7E4FE00214FF48020FFF7DFFE10BD37
:100D400000220288944B98420ED0994B98420BD0C7
:100D5000B0F1804F08D0914B984205D0904B98420B
:100D600002D0904B984204D14FF68F731A404B88B3
:100D70001A438D4B984207D08C4B984204D04FF6C3
:100D8000FF431A40CB881A4302808B8883850B88E7
:100D90000385814B98420BD0854B984208D08B4BF2
:100DA000984205D08A4B984202D08A4B984201D192
:100DB0000B7A038601238382704770B500240022DA
:100DC0000023058C4FF6FE7635400584028C83881F
:100DD000048B4FF68F752C40B51E2C400D882C438C
:100DE000751E2A400D892A434D882A436A4DA84220
:100DF0000BD06F4DA84208D0744DA84205D0744D59
:100E0000A84202D0734DA84213D14FF6F7752A407D
:100E10004D892A434FF6FB752A408D882A434FF6A9
:100E2000FF652B404FF6FF552B408D892B43CD8915
:100E30002B4383800483CD888586028470BD70B582
:100E4000002400220023058C4FF6EF763540058400
:100E5000028C8388048B48F6FF752C404FF6FF45C3
:100E60002C400D884FF6FF7606EA05252C434FF6F9
:100E7000DF752A400D8906EA05152A434D8806EAE2
:100E800005152A43444DA84202D0494DA8421DD120
:100E90004FF67F752A404D894FF6FF7606EA051515
:100EA0002A434FF6BF752A408D8806EA05152A4366
:100EB0004FF6FF352B404FF2FF752B408D8906EA28
:100EC00085052B43CD8906EA85052B438380048362
:100ED000CD880587028470BD70B5002400220023F0
:100EE000058C4FF6FF6635400584028C8388848B21
:100EF0004FF68F752C404FF6FC752C400D882C4317
:100F00004FF6FF552A400D894FF6FF7606EA052574
:100F10002A434D8806EA05252A431F4DA84202D0E0
:100F2000234DA8421DD14FF2FF752A404D894FF63F
:100F3000FF7606EA05252A434FF6FF352A408D88BD
:100F400006EA05252A434EF6FF752B404DF6FF7540
:100F50002B408D8906EA05152B43CD8906EA051538
:100F60002B4383808483CD888587028470BD70B5D0
:100F7000002200230024058C4EF6FF7635400584C0
:100F8000038C8488828B48F6FF752A404FF6FF4514
:100F90002A400D8820E00000002C014000040040A1
:100FA00000080040000C0040001000400014004009
:100FB00000340140004C0140005001400054014009
:100FC00000180040001C004000200040004001408C
:100FD00000440140004801404FF6FF7606EA05252F
:100FE0002A434DF6FF752B400D8906EA05352B4344
:100FF0004D8806EA05352B43FA4DA84202D0FA4D3A
:10100000A84208D14BF6FF752C408D894FF6FF762C
:1010100006EA85152C4384808283CD88A0F8405051
:10102000038470BD828B4FF2FF331A408283828B20
:101030004FF6FF7303EA01231A4382837047F0B52A
:101040000C461546002200210026078C4EF6FF7C38
:1010500007EA0C070784828B018C4FF6FF7707EABB
:10106000043640F6FF473A404FF6FF7707EA052778
:101070003A434FF6FF7707EA03373A43D94FB8426E
:101080000ED0D94FB8420BD0B0F1804F08D0D74F17
:10109000B84205D0D64FB84202D0D64FB84206D19A
:1010A0004DF6FF77394046F48057394305E047F65F
:1010B000FF57394044F48057394382830184F0BD9F
:1010C000828B4FF6F3731A408283828B0A438283AA
:1010D0007047F0B50C461546002200210026078C0B
:1010E0004FF6FF6C07EA0C070784828B018C4FF6E2
:1010F000FF7707EA04264FF60C773A404FF6FF7762
:1011000007EA03172F433A43B64FB8420ED0B64F03
:10111000B8420BD0B0F1804F08D0B44FB84205D0E0
:10112000B34FB84202D0B34FB84206D14FF6FF5783
:10113000394046F48077394305E04FF2FF57394094
:1011400044F48077394382830184F0BD028B4FF2EF
:10115000FF331A400283028B4FF6FF7303EA012329
:101160001A4302837047F0B50C4615460022002151
:101170000026078C4FF6EF7C07EA0C070784028BEA
:10118000018C4FF6FF7707EA041640F6FF473A4016
:101190004FF6FF7707EA03373A434FF6FF7707EA40
:1011A00005273A438F4FB8420ED08F4FB8420BD02D
:1011B000B0F1804F08D08D4FB84205D08C4FB84267
:1011C00002D08C4FB84206D14FF6DF77394046F057
:1011D0001007394305E04FF65F77394044F01007B8
:1011E000394302830184F0BD028B4FF6F3731A403A
:1011F0000283028B0A4302837047F0B50C46154602
:1012000000220021068C4FF6FE773E400684028BBA
:10121000018C4FF60C7632407E1C06EA03162E43F4
:101220003243704EB0420ED06F4EB0420BD0B0F190
:10123000804F08D06D4EB04205D06D4EB04202D006
:101240006C4EB04206D14FF6FD76314044F00106B7
:10125000314305E04FF6F576314044F00106314365
:1012600002830184F0BD70B505460C465D48854299
:101270000ED05D4885420BD0B5F1804F08D05B4859
:10128000854205D05A48854202D05A48854200D14D
:1012900000E000BF208850B92389A28861882846D1
:1012A000FFF7ABFFE1882846FFF79EFF25E0208887
:1012B00004280AD12389A28861882846FFF753FFB2
:1012C000E1882846FFF742FF17E0208808280AD166
:1012D0002389A28861882846FFF7FBFEE18828461B
:1012E000FFF7EEFE09E02389A28861882846FFF710
:1012F000A6FEE1882846FFF795FE70BD2DE9F04176
:1013000005460C4600260127608808B9022600E041
:101310000026A088012801D1022700E001272088AB
:10132000A0B92389A28861882846FFF766FFE18873
:101330002846FFF759FF23893A4631462846FFF7EA
:1013400012FFE1882846FFF701FF13E02389A288F6
:1013500061882846FFF707FFE1882846FFF7F6FE79
:1013600023893A4631462846FFF747FFE188284659
:10137000FFF73AFFBDE8F0810A884B881A438B8853
:101380001A43CB881A430B891A434B891A438B891A
:101390001A43A0F8442070474FF6FF718180002166
:1013A0000180C1804180017270470021018041802D
:1013B0008180C180018141818181C181704700218B
:1013C00001804180012181800021C180018170471D
:1013D0000021018041808180C18001814181818122
:1013E00070470000002C0140003401400004004020
:1013F00000080040000C004021B1028842F00102C8
:10140000028004E002884FF6FE731A4002807047A3
:1014100031B1B0F8442042F40042A0F8442005E085
:10142000B0F84420C2F30E02A0F8442070471AB16D
:1014300083890B43838102E083898B4383817047D7
:101440008182704741EA0203A0F8483070471AB120
:1014500083890B43838102E083898B4383817047B7
:1014600001894FF6F8721140018170470A46002148
:1014700001894FF68F73194011430181704730B5D0
:1014800004460D4629462046FFF7F0FF208940F02C
:101490000700208130BD2DE9F04104460D46164677
:1014A0001F46602D06D13B46012231462046FFF7FC
:1014B0005AFE05E03B46012231462046FFF79DFEDD
:1014C00029462046FFF7D2FF208940F007002081FF
:1014D000BDE8F08130B50C4600210189C9B24FF654
:1014E000FF7505EA0325154325432943018130BDD6
:1014F0002DE9F04105460E4617469846002443461E
:101500003A4631462846FFF7E5FF2C894FF6F8703A
:10151000044044F007044FF68F70044044F0700418
:101520002C81BDE8F081F0B504460D4616461F46F5
:101530003B46324629462046FFF7CCFF208940F43F
:1015400080402081F0BD0185828270470A460021DB
:1015500001884FF68F731940114301807047F0B531
:101560000C4615461E460021002200230189028BED
:10157000038C4FF6F877394021434FF6FC473A4049
:1015800040F201173A434FF6DD773B404FF6FF77C5
:1015900007EA06172F433B43018102830384F0BD12
:1015A0000A460021018B4FF68F73194011430183C6
:1015B00070470A460021018B48F6FF7319404FF629
:1015C000FF7303EA02231943018370470A4600218F
:1015D000818B4FF68F7319401143818370470A4600
:1015E0000021818B48F6FF7319404FF6FF7303EA21
:1015F000022319438183704721B1028842F080029F
:10160000028004E002884FF67F731A400280704720
:1016100021B1828842F00402828004E082884FF681
:10162000FB731A408280704721B1828842F0080221
:10163000828004E082884FF6F7731A4082807047F8
:1016400021B1828842F00102828004E082884FF654
:10165000FE731A40828070470A460021018B4FF6C4
:10166000F77319401143018370470A460021018B2B
:101670004FF2FF7319404FF6FF7303EA0223194339
:10168000018370470A460021818B4FF6F77319409A
:101690001143818370470A460021818B4FF2FF730B
:1016A00019404FF6FF7303EA022319438183704701
:1016B0000A460021018B4FF6FB7319401143018349
:1016C00070470A460021018B4FF6FF3319404FF651
:1016D000FF7303EA02231943018370470A4600217E
:1016E000818B4FF6FB7319401143818370470A4683
:1016F0000021818B4FF6FF3319404FF6FF7303EA49
:1017000002231943818370470A460021018B4FF65B
:101710007F7319401143018370470A460021018BF2
:10172000C1F30E014FF6FF7303EA0223194301834D
:1017300070470A460021818B4FF67F731940114391
:10174000818370470A460021818BC1F30E014FF659
:10175000FF7303EA02231943818370470A4600217D
:10176000018C4FF6FD7319401143018470470A46FE
:101770000021018C4FF6F773194011430184704723
:101780000A460021018C4FF6DF7319404FF6FF73B4
:1017900003EA02131943018470470A460021018CB1
:1017A0004FF67F7319404FF6FF7303EA0213194394
:1017B000018470470A460021018C4FF6FF531940FF
:1017C0004FF6FF7303EA02231943018470470A4668
:1017D0000021018C4FF2FF7319404FF6FF7303EAAB
:1017E00002231943018470470A460021018C4DF6FB
:1017F000FF7319404FF6FF7303EA02331943018464
:10180000704730B5002301248C40A3B2048C9C4364
:101810000484048C02FA01F5ADB22C43048430BD7B
:1018200030B5002304248C40A3B2048C9C43048470
:10183000048C02FA01F5ADB22C43048430BD70B5BE
:101840000346002000241846183001258D40ACB214
:101850001D8CA5431D8409B1082909D100EB610045
:10186000056825F0700505600568154305600EE004
:101870000D1FC5F34E052844056825F4E0450560B5
:1018800005684FF6FF7606EA02263543056070BD0F
:1018900021B1028842F00202028004E002884FF681
:1018A000FD731A400280704721B1028842F00402A1
:1018B000028004E002884FF6FB731A4002807047F2
:1018C00021B1828842F08002828004E082884FF653
:1018D0007F731A408280704702884FF6F7731A4070
:1018E000028002880A430280704782884FF68F7315
:1018F0001A40828082880A438280704702894FF6AC
:10190000F8731A40028102890A43028170470289F2
:101910004FF67F731A40028102890A4302817047A1
:101920008184704781857047818670470187704741
:1019300081877047A0F84010704702884FF6FF4338
:101940001A40028002880A43028070470146888E4E
:1019500070470146088F70470146888F70470146DF
:10196000B1F8400070470146888C70470146088DE9
:10197000704702460020138A0B4201D0012000E08C
:1019800000207047CA430282704730B502460020EB
:1019900000230024158A05EA0103958905EA01045C
:1019A00013B10CB1012000E0002030BDCA43028217
:1019B0007047000010B50446FB48844209D101215C
:1019C0008803FFF79BF800214FF48040FFF796F85B
:1019D00032E0F648844209D101214804FFF79BF820
:1019E00000214FF40030FFF796F825E0F0488442DC
:1019F00009D101218804FFF78EF800214FF48020DF
:101A0000FFF789F818E0EB48844209D10121C804A6
:101A1000FFF781F800214FF40020FFF77CF80BE07E
:101A2000E548844208D101210805FFF774F8002138
:101A30004FF48010FFF76FF810BD2DE9F04786B026
:101A400005460E460024A24600BFA1460027B089E5
:101A500000B100BF2F462C8A4CF6FF700440F0887E
:101A600004432C82AC894EF6F3100440B0883189CF
:101A70000843718908430443AC81AC8A4FF6FF40A8
:101A80000440B0890443AC8201A8FEF7B0FFC64809
:101A9000874202D1DDF810A001E0DDF80CA0A88992
:101AA00010F4004F08D00AEBCA0000EB0A103168AE
:101AB0004900B0FBF1F807E00AEBCA0000EB0A109E
:101AC00031688900B0FBF1F86420B8FBF0F0040144
:101AD0002009642101FB1089A88910F4004F08D067
:101AE000322000EBC900B0FBF1F000F00700044326
:101AF00008E0322000EB09106421B0FBF1F000F0A7
:101B00000F0004432C8106B0BDE8F0874FF4165156
:101B1000016000218180C18001810C21418100216F
:101B20008181704710B502460020108A4FF2FF03F2
:101B300018400B884C8823438C882343CC8823434C
:101B40001843108210BD0021018041808180C18036
:101B5000704721B1828942F40052828104E0828977
:101B60004DF6FF731A4082817047F0B5034600249A
:101B7000002600250020A1F510676A3F00D100BFB4
:101B80001846C1F3421401F01F06012707FA06F5B3
:101B9000012C01D10C3004E0022C01D1103000E006
:101BA00014301AB107682F43076002E00768AF439B
:101BB0000760F0BD1AB1838A0B43838202E0838AF7
:101BC0008B4383827047028A4FF6F0731A40028279
:101BD000028A0A430282704782894FF2FF731A40D9
:101BE000828182890A438281704721B1828942F0D1
:101BF0000202828104E082894FF6FD731A408281DD
:101C00007047028A4FF6DF731A400282028A0A4343
:101C10000282704721B1028A42F48042028204E0CB
:101C2000028A4BF6FF731A4002827047C1F3080222
:101C30008280704701468888C0F308007047818918
:101C400041F0010181817047028BD2B20283028B85
:101C500042EA012202837047028B02F47F42028330
:101C6000028B0A430283704721B1828A42F020022C
:101C7000828204E0828A4FF6DF731A4082827047C4
:101C800021B1828A42F01002828204E0828A4FF6F9
:101C9000EF731A408282704721B1828A42F00802B3
:101CA000828204E0828A4FF6F7731A40828270477C
:101CB00021B1828942F40042828103E08289C2F329
:101CC0000E028281704721B1828A42F400628282D0
:101CD00004E0828A4FF2FF731A4082827047828A40
:101CE0004FF6FB731A408282828A0A4382827047CF
:101CF00021B1828A42F00202828204E0828A4FF697
:101D0000FD731A408282704702460020B1F5007FC1
:101D100000D100BF13880B4201D0012000E0002059
:101D2000704701F40072B2F5007F00D100BFCA43D2
:101D30000280704770B50246002400230025002071
:101D4000A1F510666A3E00D100BFC1F3421501F053
:101D50001F03012606FA03F3012D02D196893340B1
:101D600006E0022D02D1168A334001E0968A334004
:101D70000C12012606FA04F41688344013B10CB193
:101D8000012000E0002070BD10B500220023A1F565
:101D900010646A3C00D100BF0A1201249440A3B22F
:101DA000DC43048010BD00000038014000440040C6
:101DB00000480040004C00400050004000F1080185
:101DC00041604FF0FF31816000F10801C1600161A5
:101DD00000210160704700210161704742684A603C
:101DE00093688B60936859609160086103685B1C1D
:101DF0000360704710B502460B685C1C01D1106986
:101E000007E002F1080000E04068446824689C4252
:101E1000FAD944684C604C68A160886041600A61EE
:101E20001468641C146010BD01460A69D1E90130D0
:101E30009860D1E9010358605068884201D18868F0
:101E40005060002008611068401E106010687047E4
:101E500010B5002407E004EB8401FC4A02EB81008A
:101E6000FFF7ACFF641C402CF5D3F948FFF7A6FF41
:101E7000F848FFF7A3FFF848FFF7A0FFF748FFF780
:101E80009DFFF748FFF79AFFF148F6490860F148CF
:101E9000F549086010BD10B5044600F0E4FFF348B2
:101EA0000068401CF1490860F148006840B9F048FA
:101EB00004600846006801280DD1FFF7C9FF0AE059
:101EC000EC48006838B9EA480068C06AE16A8842AC
:101ED00001D8E7480460E8480068401CE64908600B
:101EE000E649E06A0968884202D9E449E06A086084
:101EF000E16A01EB8101D54A02EB8100211DFFF768
:101F00006DFF00F0BFFFDB48006808B1D8480068EB
:101F100010BD2DE9FF5F80460E469146DDE90E7A41
:101F2000109CA9F10100216B01EB800B2BF0070B3A
:101F3000002507E0715D04F134004155705D00B982
:101F400002E06D1C202DF5D300BF00215320015568
:101F5000402F00D33F27E762201DFFF73CFF04F12D
:101F60001800FFF738FF2461C7F14000A0616462E8
:101F70000020606584F8580041465846039A00F0F6
:101F800046FF2060BAF1000F01D0CAF80040BDE85A
:101F9000FF9F2DE9FF4F85B0804689461746DDE952
:101FA00012ABB80000F0ABFE064656B15C2000F064
:101FB000A6FE04460CB1266304E0304600F0F2FEB3
:101FC00000E000247CB10020CDE900ABCDE9024067
:101FD0003A4649464046089BFFF79BFF2046FFF7DD
:101FE0005AFF012501E04FF0FF35284609B0BDE852
:101FF000F08F9C490968096809B9012100E00021B6
:1020000021B14FF0FF319E4A116006E09549096801
:10201000C968C8689A4A41681160704710B504469B
:10202000206B00F0BFFE204600F0BCFE10BD70B576
:10203000054600F018FF15B98D48006800E02846F5
:102040000446201DFFF7F0FEA06A18B104F1180045
:10205000FFF7EAFE88480068401C8749086084480A
:102060000068844209D1211D7C48FFF7B7FE8548EE
:102070000068401C8349086009E07C480068401EF5
:102080007A4908602046FFF7C9FFFFF7B2FF00F06A
:10209000F9FE7848006858B175480068844207D155
:1020A0004FF0805078490860BFF34F8FBFF36F8FB8
:1020B00070BD2DE9F041002774480068002850D118
:1020C00073480068451C724805608DB96548D0F8B2
:1020D000008065480068634908606348C0F8008074
:1020E0006C480068401C6B490860FFF782FF00BF26
:1020F00063480068854233D300BF5A4800680068CF
:1021000008B9012000E0002020B14FF0FF305C4909
:10211000086024E053480068C068C4686668B54237
:1021200002D2574806601AE0201DFFF77DFEA06A24
:1021300018B104F11800FFF777FE5049E06A09680A
:10214000884202D94D49E06A0860E16A01EB8101E9
:102150003E4A02EB8100211DFFF740FECDE700BFA4
:1021600004E04D480068401C4B4908603846BDE813
:10217000F08170B50024002600F075FE4348006829
:10218000401E4249086008460068002845D137488B
:102190000068002841D023E02F48C068C46804F1DB
:1021A0001800FFF741FE201DFFF73EFE3349E06AAD
:1021B0000968884202D93149E06A0860E16A01EBA6
:1021C0008101224A02EB8100211DFFF707FE284909
:1021D000E06A0968C96A884202D301202F49086071
:1021E0001D48006808B9012000E000200028D3D075
:1021F0000CB1FFF7FEFE2848056865B100BFFFF788
:1022000058FF10B10120254908606D1E002DF6D140
:102210000020214908602148006800F033FE304664
:1022200070BD2DE9F04105460E4619480768104873
:102230000068001DFFF7F8FD681C32D186B30C481A
:102240000168091D0648FFF7C9FD45E0940000201C
:1022500094050020A8050020BC050020D005002022
:10226000E40500205C000020600000203000002019
:10227000280000203C0000204C00002038000020F6
:10228000500000202C00002004ED00E05800002049
:1022900034000020480000204000002044000020BE
:1022A000FFE77C19FE4800684460BC4207D2FC4846
:1022B0000168091DFB480068FFF79CFD0CE0F84829
:1022C0000168091DF8480068FFF794FDF7480068A9
:1022D000844201D2F5480460BDE8F081F44800680A
:1022E000401CF349086070472DE9F04704468846D2
:1022F0004FF00009FFF7F2FFEE480668206800EB98
:1023000008052068B04207D92068A8420BD9B54219
:1023100009D94FF0010906E02068A84201D8B5426A
:1023200001D94FF001092560B9F1000F03D0A81BB6
:102330000021FFF776FFFFF71CFF07463FB94FF07C
:102340008050DD490860BFF34F8FBFF36F8FBDE84A
:10235000F08770B50446002544B1FFF7BFFF0021A8
:102360002046FFF75EFFFFF704FF05463DB94FF03B
:102370008050D1490860BFF34F8FBFF36F8F70BD9E
:1023800070B5044600F06FFD14B9C548006800E060
:1023900020460646F56A00F075FD284670BD70B50A
:1023A000024600BFBF25EFF3118485F31188BFF308
:1023B0004F8FBFF36F8F00BF214612B9B84C24680E
:1023C00000E014462346D86A00BF81F3118800BF9D
:1023D00070BD2DE9F04707460D464FF00009402D2E
:1023E00000D33F2500F03FFD17B9AD48006800E07D
:1023F00038460446E66AAE423ED0B5420BD9A848FC
:10240000006884420DD0A6480068C06AA84208D877
:102410004FF0010905E0A2480068844201D14FF065
:102420000109D4F82C80E562A06910F0004F02D1B8
:10243000C5F14000A06108EB8801A04A02EB8101D0
:102440006069884201D1012000E0002098B1201D80
:10245000FFF7EAFC9A49E06A0968884202D998497C
:10246000E06A0860E16A01EB8101944A02EB8100B5
:10247000211DFFF7B3FC00BF00F004FDBDE8F087AD
:102480008B48006818B101208E49086028E00020C0
:102490008C4908608A48016800E0491E01EB810010
:1024A000864A52F8200008B9012000E000200028E8
:1024B000F3D101EB8102814B03EB82004268526849
:1024C000426000F108024368934202D142685268B8
:1024D00042604268D268724B1A607948016000BF5E
:1024E000704770B5054600F0BEFC15B96C48006831
:1024F00000E028460446201DFFF796FCA06A18B1AC
:1025000004F11800FFF790FC211D6F48FFF766FCEF
:1025100000F0B8FC6D48006828B100F0A4FCFFF79B
:1025200068FD00F0AFFC5E480068844217D1674840
:10253000006840B14FF080505F490860BFF34F8F93
:10254000BFF36F8F0BE060480068614909688842FB
:1025500003D100205249086001E0FFF791FF70BDF0
:1025600010B5014600200A46574C5369A34201D1D9
:10257000012300E0002373B1564C936AA34201D1BA
:10258000012300E0002333B9936A0BB9012300E073
:10259000002303B1012010BD70B505462C460CB3D5
:1025A0003F48006884421DD000F05DFC2046FFF7E4
:1025B000D7FFA8B1201DFFF737FC4149E06A096841
:1025C000884202D93E49E06A0860E16A01EB810174
:1025D0003A4A02EB8100211DFFF700FC30480068F9
:1025E00000F050FC70BD2DE9F0410646002734464E
:1025F00000BFBF21EFF3118081F31188BFF34F8F2C
:10260000BFF36F8F00BF05462046FFF7A9FF18B341
:1026100027480068D8B92249E06A0968C96A88422F
:1026200000D30127201DFFF7FFFB2549E06A096859
:10263000884202D92249E06A0860E16A01EB81011F
:102640001E4A02EB8100211DFFF7C8FB04E004F1E4
:1026500018012048FFF7C2FB00BF85F3118800BFB7
:102660003846BDE8F08170B545E0FFF737FE1A48FF
:10267000006808B9012000E000200546FFF779FD59
:1026800075BB00F0F0FB1448C068C468201DFFF75C
:10269000CBFB0F480068401E0D4908600F4820E042
:1026A00028000020600000205C0000205000002076
:1026B000580000203400002004ED00E094000020C9
:1026C0003800002044000020E40500203C000020E9
:1026D00030000020BC050020D00500202C00002088
:1026E00009E00068401EF949086000F0CBFB204675
:1026F000FFF794FC00BFF54800680028B5D170BD15
:1027000000BFFFF7B0FF4FF08050F1490860BFF302
:102710004F8FBFF36F8FF4E71CB5EE4800210B46D7
:102720004022CDE90010ECA1ED48FFF732FC044651
:10273000012C14D100BFBF2080F31188BFF34F8F4D
:10274000BFF36F8F00BF4FF0FF30E64908600120F4
:10275000E54908600020E549086000F06EFB1CBDFB
:1027600010B500BFBF2080F31188BFF34F8FBFF3B8
:102770006F8F00BF0020DC49086000F073FB10BDC4
:10278000DA49086870470021D84A10687047D8486D
:1027900000687047014611B9D648006800E0084655
:1027A000024602F13400704770B505460C46D14828
:1027B000016818312846FFF71DFB01212046FFF76D
:1027C00030FD70BD70B506460C46154644F000401D
:1027D000C84909688861C748016818313046FFF761
:1027E000FDFA01212846FFF71CFD70BD70B50646B5
:1027F000F068C46804F11800FFF716FBBE480068D3
:10280000A0B9201DFFF710FBBC49E06A09688842A7
:1028100002D9BA49E06A0860E16A01EB8101B84A6D
:1028200002EB8100211DFFF7D9FA04E004F1180141
:10283000B448FFF7D3FAAF49E06A0968C96A884229
:1028400004D901250120B049086000E00025284690
:1028500070BD2DE9F04105460F4647F00040286065
:10286000EC682846FFF7E0FA201DFFF7DDFAA349E0
:10287000E06A0968884202D9A049E06A0860E16A12
:1028800001EB81019E4A02EB8100211DFFF7A6FAB0
:102890009849E06A0968C96A884204D9012601207A
:1028A0009949086000E000263046BDE8F08197496C
:1028B000096801608D4909684160704770B5044638
:1028C0000D4600F0D0FA894802682868401C01D102
:1028D000002619E08D4920680968884204D06068A4
:1028E000904201D801260FE06068101A29688842DA
:1028F00009D228686168511A401A28602046FFF7FB
:10290000D6FF002600E0012600F0BCFA304670BD7C
:1029100001207D49086070477649096888697549D2
:102920000968C96AC1F14001724A12689161704731
:1029300070B506460D4600F096FA6E480068406D88
:1029400088B901206B49096881F858005DB10121FF
:102950002846FFF766FC4FF080505D490860BFF3E2
:102960004F8FBFF36F8F00F08DFA00F07CFA614853
:102970000068446D4CB126B100205E490968486585
:1029800003E0601E5B4909684865002059490968F1
:1029900081F8580000F076FA204670BD2DE9F0412C
:1029A0000746884614461D4600F05DFA5148006807
:1029B00090F85800022818D04E49096801F15400D7
:1029C000496DB943016001204A49096881F85800FE
:1029D0005DB101212846FFF724FC4FF080503C49AF
:1029E0000860BFF34F8FBFF36F8F00F04BFA00F01A
:1029F0003AFA1CB13F480068406D20603D480068CD
:102A000090F85800012801D1002608E039490968EA
:102A100001F15400496D21EA0801016001260020FE
:102A20003449096881F8580000F02CFA3046BDE8B6
:102A3000F0812DE9F04781460D4616461F464FF0BE
:102A4000010A4C4600F00FFA0FB1606D386094F83F
:102A50005880022084F85800052E17D2DFE806F0CF
:102A60001503070B0D00606D284360650EE0606D77
:102A7000401C60650AE0656508E0B8F1020F01D00E
:102A8000656501E04FF0000A00E000BF00BFB8F14B
:102A9000010F15D1201DFFF7C7F91849E06A096831
:102AA000884202D91549E06A0860E16A01EB8101B8
:102AB000134A02EB8100211DFFF790F90D480068D1
:102AC00000F0E0F95046BDE8F08700002C0000203F
:102AD00004ED00E05400002049444C450000000093
:102AE00001270008500000203C0000203400002096
:102AF000300000202800002058000020380000206E
:102B000094000020BC050020440000204800002064
:102B10002DE9F84F83460D4616461F46DDF828A0DE
:102B2000012000905C4600BFBF21EFF3118081F3CC
:102B30001188BFF34F8FBFF36F8F00BF81460FB176
:102B4000606D386094F85880022084F85800052E93
:102B500017D2DFE806F01503070B0D00606D284360
:102B600060650EE0606D401C60650AE0656508E028
:102B7000B8F1020F01D0656501E00020009000E08F
:102B800000BF00BFB8F1010F2CD14C480068A0B9BC
:102B9000201DFFF749F94A49E06A0968884202D9CD
:102BA0004749E06A0860E16A01EB8101454A02EBAE
:102BB0008100211DFFF712F904E004F118014248D9
:102BC000FFF70CF94149E06A0968C96A884209D9E6
:102BD000BAF1000F03D00120CAF8000002E0012082
:102BE0003B49086000BF89F3118800BF0098BDE829
:102BF000F88F2DE9F04105460E462C4600BFBF2157
:102C0000EFF3118081F31188BFF34F8FBFF36F8F04
:102C100000BF074694F85880022084F85800606D81
:102C2000401C6065B8F1010F29D124480068A0B9A3
:102C3000201DFFF7F9F82249E06A0968884202D9A5
:102C40001F49E06A0860E16A01EB81011D4A02EB5D
:102C50008100211DFFF7C2F804E004F118011A48B1
:102C6000FFF7BCF81949E06A0968C96A884206D9C1
:102C700016B10120306002E001201549086000BF54
:102C800087F3118800BFBDE8F08170B5054615B91E
:102C90000E48006800E02846064600F0E4F896F882
:102CA0005800022804D1002086F85800012400E0D2
:102CB000002400F0E7F8204670BD00005800002016
:102CC0003800002094000020BC05002028000020CF
:102CD00044000020434A22F00700434A10600022CB
:102CE000414B5A604EF6F872404B5A6000221A600F
:102CF00001464EF6F8724A601A460A6070472DE99E
:102D0000F04104464FF00008FFF7E8FA3848006841
:102D100020B9FFF7DFFF01203549086044B10834CE
:102D200014F0070F04D004F00700C0F108000444B9
:102D3000002C32D04EF6F87084422ED22A4F3846FC
:102D4000056801E02F462D686868A04202D2286815
:102D50000028F7D1254885421FD0386800F10808BF
:102D6000286838606868001B102810D92E19686818
:102D7000001B70606C6071681B4800E000680268AE
:102D800052688A42FAD302683260066000BF19496D
:102D900068680968081A17490860FFF7EAF94046A9
:102DA000BDE8F08170B506463546B6B1083D2C4603
:102DB000FFF794FA61680C4800E000680268526806
:102DC0008A42FAD30268226004600A49606809688E
:102DD000084408490860FFF7CCF970BD0548006851
:102DE00070477047000600206C000020740000202F
:102DF000680000206400002000BFBF2080F311881D
:102E0000BFF34F8FBFF36F8F00BF00BFFEE7001F00
:102E10004FF080730360001F21F001030360001F67
:102E20002B4B0360143802602038704729484FF05C
:102E3000E021486107200861704710B52648006806
:102E400040F47F00244908600846006840F07F4055
:102E50000860FFF7EBFF002020490860FDF784F9C8
:102E6000002010BD704700BFBF2080F31188BFF362
:102E70004F8FBFF36F8F00BF18480068401C174981
:102E80000860704715480068401E144908600846ED
:102E9000006820B9002080F3118800BF00BF704790
:102EA00010B500BFBF2080F31188BFF34F8FBFF371
:102EB0006F8F00BFFFF7FDF820B14FF0805006493B
:102EC0001C39086000BF002080F3118800BF10BDCE
:102ED000F92D00083F19010020ED00E07C000020E2
:102EE00030B559480068594AB0FBF2F1B1F1807F22
:102EF00001D301201DE021F07F40401E4FF0E02271
:102F0000506150170F22002807DA13071D0E504B8F
:102F100000F00F04241F1D5503E013071C0E4D4B3A
:102F20001C5400BF00204FF0E02290610720106188
:102F3000002008B100BFFEE730BD08B54FF4A06027
:102F4000FDF742FA1C208DF8000000208DF80100EA
:102F50008DF8020001208DF803006846FDF739FA6C
:102F600008BD0EB5FFF7E9FF01210846FDF7B9FDE1
:102F70004FF08040FDF710FE4FF08040FEF770FAF2
:102F80000920ADF800000020ADF80600ADF8020001
:102F90002320ADF8040069464FF08040FDF7D0FED5
:102FA00001218807FEF7EEFC012211469007FEF78B
:102FB0003EFA01218807FEF71FFA0EBD0EB501216A
:102FC0000220FDF78EFD2448FDF7E6FD2248FEF7BE
:102FD00047FA0020ADF80000ADF80600ADF8020099
:102FE0004FF6FF70ADF8040069461B48FDF7A8FED8
:102FF00001211948FEF7C6FC002201211648FEF700
:1030000016FA01211448FEF7F7F90EBD13490860BE
:1030100000BF124909680029FBD170470F480068BA
:1030200020B10E480068401E0C490860704710B57A
:1030300001218807FEF7A9FC28B1FFF7EFFF012166
:103040008807FEF79FFC10BD0000002040420F00E3
:1030500018ED00E000E400E00004004080000020E3
:103060000020FFF78DF902E03220FFF772F9FBE74D
:1030700008B501214820FDF727FD2020ADF800000C
:1030800002208DF8020010208DF8030069465A488E
:10309000FDF768FA69465948FDF764FA08BD08B5B6
:1030A0000746384600F0F4F9FFF7E2FF51E054A07C
:1030B00000F0EEF9002416E05548FEF754FC0546F2
:1030C000544951F82400FFF70CFA5148FEF74BFC25
:1030D0000646701B33462A46214600904EA000F05B
:1030E000D7F9601C84B2022CE6DB56A000F0D0F9C0
:1030F000002416E04648FEF736FC0546454951F8DF
:103100002400FFF749FA4248FEF72DFC0646701BE3
:1031100033462A46214600903FA000F0B9F9601CD2
:1031200084B2022CE6DB20213448FDF7C8FA2021C6
:103130003148FDF7C2FA3220FFF70BF920212F4862
:10314000FDF7BBFA20212C48FDF7B9FA3220FFF732
:1031500000F9ACE71CB54FF4E13000F0B7F8434894
:1031600000684FF47A72B0FBF2F1B1F1807F00D3C6
:103170001DE021F07F40401E4FF0E02250615017CB
:103180000F22002807DA13071E0E394B00F00F0537
:103190002D1F5E5503E013071D0E364B1D5400BF57
:1031A00000204FF0E02290610720106100BFFFF780
:1031B00005FF0020022130A34022CDE9001034A1F8
:1031C000AFF22510FEF7E5FE00240EE0114800EBFB
:1031D0008400E11C00234022CDE900102EA1AFF2B3
:1031E0007F10FEF7D6FE601C84B2022CEEDBFFF7E8
:1031F00093FA00BFFEE70000000C014000180140F8
:1032000053757370656E64205461736B0D0A000012
:103210000004004088000020693D25642C2074696A
:103220006D65313D25642C2074696D65323D2564E2
:103230002C2074696D65322D74696D65313D25648E
:103240000D0A0000526573756D6520746865207302
:10325000757370656E646564207461736B206F753F
:103260007273656C7665730D0A0000000000002023
:1032700018ED00E000E400E06D795F7461736B208D
:1032800073746172742E2E2E202E2E2E0D0A0000C5
:103290006D795461736B00006D795461736B31000B
:1032A000704700BFFEE700BFFEE700BFFEE700BFBC
:1032B000FEE710B5FCF746FF10BD704710B5FCF7F0
:1032C00063FF10BD10B5FFF7EBFD10BD10B586B064
:1032D0000446012144F20400FDF7F6FB4FF4806040
:1032E000ADF8140003208DF8160004208DF81700A7
:1032F00005A92A48FDF736F94FF40070ADF814001F
:1033000018208DF8170005A92448FDF72BF924484B
:10331000FEF750FB4FF4A060FDF756F825208DF81E
:10332000000003208DF801008DF8020001208DF8C7
:1033300003006846FDF74DF801940020ADF8080041
:10334000ADF80A00ADF80C000C20ADF80E0000201E
:10335000ADF8100001A91248FEF76FFB012240F200
:1033600025510F48FEF701FC01210D48FEF7F1FB46
:103370000CA000F08DF806B010BD70B504460D46E7
:10338000E1B20748FEF752FC00BF40210448FEF7B7
:10339000BBFC0028F9D0204670BD000000080140A9
:1033A000003801400A0D55415254205445535421D0
:1033B0000AB4AEBFDAB3F5CABCBBAFCDEAB1CFA198
:1033C000ADA1AD0A000000002DE9F05F0546002028
:1033D00092469B4688460646814640241BE0284686
:1033E00041464746224600F042F853465A46C01A24
:1033F000914110D311461846224600F029F82D1AA3
:1034000067EB01084F4622460120002100F020F81A
:1034100017EB00094E41201EA4F10104DFDC4846F1
:1034200031462A464346BDE8F09F0000064C074D52
:1034300006E0E06840F0010394E807009847103484
:10344000AC42F6D3FCF778FE90370008B03700089E
:10345000202A04DB203A00FA02F100207047914054
:10346000C2F1200320FA03F3194390407047202A49
:1034700004DB203A21FA02F00021704721FA02F31E
:10348000D040C2F120029140084319467047000025
:103490000FB4054B10B503A9044A029800F018F8C0
:1034A00010BC5DF814FB00007B3300089000002086
:1034B00002E008C8121F08C1002AFAD170477047FD
:1034C000002001E001C1121F002AFBD1704700005B
:1034D0002DE9FF4F8DB09B460F460446002639E18B
:1034E000252801D00F9959E00025641C9D49A84664
:1034F00001222378203B02FA03F0084202D0054360
:10350000641CF6E720782E2817D114F8010F45F037
:1035100004052A280ED06FF02F022078A0F1300188
:1035200009290AD808EB880102EB410100EB0108E8
:10353000641CF2E757F8048B641C20786C280DD0CB
:1035400004DC4C2812D06A2811D104E074280DD074
:103550007A280CD10AE045F4001507E0617845F4BB
:103560008015814202D1641C05F58015641C227807
:10357000692A46D008DC002A70D0582A69D0632A0C
:1035800011D0642A08D13CE0702A69D0732A14D083
:10359000752A5CD0782A5CD00F9910465A4690471D
:1035A00006F10106D5E017F8040B8DF800000020A5
:1035B0008DF80100E946012003E057F8049B4FF025
:1035C000FF3069074FF0000501D40AE06D1C454546
:1035D0000DDA8542FADB19F805100029F6D106E06C
:1035E0006D1C8542FCDB19F805100029F8D12E442A
:1035F00004E019F8010B5A460F9990476D1EF8D256
:10360000A7E00A200021CDE90801C5F302500228F5
:103610000BD001CFC11700290EDA4FF0000CD0EB10
:103620000C006CEB01012D2309E007F1070727F0DF
:103630000707F7E80201EEE72B0504D52B238DF8E9
:103640002830012330E0EB072ED02023F7E70A20B3
:1036500000E010200021CDE9080109E07EE0FFE74D
:103660001020002145F00405CDE908014FF00808BD
:10367000C5F3025002281BD001CF00214FF0000AF1
:103680002B0712D5702A19D0DDE908C38CF0100C75
:103690005CEA030C09D150EA010306D030238DF80F
:1036A00028308DF8292002239A46582A10D00AE0A3
:1036B000FF1D27F00707F7E80201DFE740228DF83A
:1036C00028204FF0010A28A20DF120090B9209E0F1
:1036D0002AA2F9E7DDE90823FFF776FE0B9B9B5C46
:1036E00009F8013D50EA0102F4D1ADEB090000F107
:1036F00020000890680701D44FF001080898804521
:1037000003DD0899A8EB010000E0002080460025B9
:1037100006E00AA85A46405D0F999047761C6D1C3A
:103720005545F6DB04E030205A460F999047761C49
:10373000B8F10001A8F10108F5DC05E019F8010B6A
:103740005A460F999047761C0899481E0890002900
:10375000F4DC641C207800287FF4C2AE11B030463F
:10376000BDE8F08F09280100303132333435363767
:1037700038396162636465660000000030313233BD
:10378000343536373839414243444546000000005D
:10379000B03700080000002094000000B03400089A
:1037A000443800089400002064F90000C034000888
:1037B00000A24A040000000000000000010203040F
:1037C00006070809000000000102030401020304C7
:1037D00006070809020406080000000000000000B7
:1037E00000000000000000000000000000000000D9
:1037F00000000000000000000000000000000000C9
:1038000000000000000000000000000000000000B8
:1038100000000000F8EF00000000000000000000C1
:10382000000000000000000000000000AAAAAAAAF0
:103830000000000000000000000000000000000088
:043840000000000084
:0400000508000131BD
:00000001FF
