:020000040800F2
:10000000D8FA0020A5030008593A00085B3A000816
:100010005F3A0008633A0008673A000800000000F1
:100020000000000000000000000000004501000882
:10003000733A000800000000890100084D360008EE
:10004000BF030008BF030008BF030008BF03000888
:10005000BF030008BF030008BF030008BF03000878
:10006000BF030008BF030008BF030008BF03000868
:10007000BF030008BF030008BF030008BF03000858
:10008000BF030008BF030008BF030008BF03000848
:10009000BF030008BF030008BF030008BF03000838
:1000A000BF030008BF030008BF030008BF03000828
:1000B000DB370008BF030008BF030008BF030008C8
:1000C000BF030008BF030008BF030008BF03000808
:1000D000BF030008BF030008BF030008BF030008F8
:1000E000BF030008BF030008BF030008BF030008E8
:1000F000BF030008BF030008BF030008BF030008D8
:10010000BF030008BF030008BF030008BF030008C7
:10011000BF030008BF030008BF030008BF030008B7
:10012000BF030008BF030008BF030008BF030008A7
:10013000DFF80CD003F068FD00480047493900089B
:10014000D8FA0020224B19680868B0E8F00F80F355
:100150000988BFF36F8F4FF0000080F311884EF0D5
:100160000D0E70470000000006480068006880F32C
:10017000088862B661B6BFF34F8FBFF36F8F00DFA1
:1001800000BF00BF08ED00E0EFF30980BFF36F8F01
:100190000F4B1A6820E9F00F106008B54FF0BF0050
:1001A00080F31188BFF34F8FBFF36F8F02F0C4FC51
:1001B0004FF0000080F31188BDE808401968086816
:1001C000B0E8F00F80F30988BFF36F8F704700BF6E
:1001D00028000020EFF30580704700000021002078
:1001E000674A126842F48032654B1A6000BF644A65
:1001F000126802F40030491C10B9B1F5A06FF6D1B5
:100200005F4A126812F4003F01D0012000E0002094
:10021000012842D15B4A126842F01002594B1A6021
:100220001A46126822F003021A601A46126842F057
:1002300002021A60524A5268514B5A601A4652687A
:100240005A601A46526842F480625A601A465268EE
:1002500022F47C125A601A46526842F4E8125A603C
:100260001A46126842F080721A6000BF444A12684F
:1002700012F0007FFAD0424A526822F00302404B4B
:100280005A601A46526842F002025A6000BF3C4A65
:10029000526802F00C02082AF9D1704710B5FFF736
:1002A0009DFF10BD10B53648006840F0010034498C
:1002B00008600846406834490840314948600846AB
:1002C0000068324908402E4908600846006820F45A
:1002D000802008600846406820F4FE0048604FF423
:1002E0001F008860FFF7DAFF4FF0006028490860C0
:1002F00010BD10B5002100200022214B5B6803F0E7
:100300000C0121B1042906D0082928D107E0214B8E
:10031000214C236027E01F4B1F4C236023E0184B28
:100320005B6803F47010164B5B6803F480320223A1
:1003300003EB904022B9194B4343174C23600DE067
:100340000F4B5B6813F4003F04D0144B4343124C33
:10035000236003E00F4B43430F4C236003E00D4B3E
:100360000D4C236000BF00BF054B5B68C3F3031354
:100370000B4CE15C084B1B68CB40074C236010BD65
:1003800000100240002002400000FFF8FFFFF6FED0
:1003900008ED00E000127A000000002000093D0096
:1003A000040000200648804706480047FEE7FEE7B5
:1003B000FEE7FEE7FEE7FEE7FEE7FEE7FEE7FEE715
:1003C000A50200083101000831490143314A11609A
:1003D000704770B5002100230F22C4780CB32D4C58
:1003E000246804F4E064C4F5E064210AC1F1040364
:1003F000CA40447804FA03F1847814402143090187
:10040000254C0678A155047804F01F050124AC4062
:1004100005786D114FF0E02606EB8505C5F8004123
:1004200009E0047804F01F050124AC401B4D067858
:10043000761145F8264070BD194A0A400243154B13
:100440001B1F1A60704739B1124A121D126802430D
:10045000104B1B1D1A6006E00E4A121D12688243E3
:100460000C4B1B1D1A607047042808D14FF0E02187
:10047000096941F004014FF0E022116107E04FF0FB
:10048000E021096921F004014FF0E0221161704779
:100490000000FA050CED00E000E400E080E100E07F
:1004A00080FFFF1F10B50446CA48844208D10121CD
:1004B000042000F023FB0021042000F01FFB46E095
:1004C000C548844208D10121082000F017FB002113
:1004D000082000F013FB3AE0C048844208D1012113
:1004E000102000F00BFB0021102000F007FB2EE095
:1004F000BB48844208D10121202000F0FFFA0021EE
:10050000202000F0FBFA22E0B648844208D1012105
:10051000402000F0F3FA0021402000F0EFFA16E04E
:10052000B148844208D10121802000F0E7FA00217F
:10053000802000F0E3FA0AE0AC48844207D10121B0
:10054000801500F0DBFA0021A01500F0D7FA10BDED
:1005500010B50121084600F0D1FA0021012000F079
:10056000CDFA10BD2DE9F0410246002500260020FD
:1005700000230024002791F803C00CF00F0591F828
:1005800003C01CF0100F03D091F802C04CEA05051F
:1005900091F800C0BCF1000F31D0146800202BE0AE
:1005A0004FF0010C0CFA00F3B1F800C00CEA03069E
:1005B0009E4220D183004FF00F0C0CFA03F7BC438E
:1005C00005FA03FC4CEA040491F803C0BCF1280FBF
:1005D00006D14FF0010C0CFA00FCC2F814C00AE07E
:1005E00091F803C0BCF1480F05D14FF0010C0CFA93
:1005F00000FCC2F810C0401C0828D1D31460B1F828
:1006000000C0BCF1FF0F34DD546800202EE000F183
:10061000080C4FF0010808FA0CF3B1F800C00CEA1E
:1006200003069E4221D183004FF00F0C0CFA03F712
:10063000BC4305FA03FC4CEA040491F803C0BCF186
:10064000280F05D100F1080C08FA0CF8C2F8148044
:1006500091F803C0BCF1480F07D100F1080C4FF02E
:10066000010808FA0CF8C2F81080401C0828CED304
:100670005460BDE8F0814FF6FF7101800221817066
:100680000421C17070470246002093680B4201D0DC
:10069000012000E0002070470146886880B2704762
:1006A00002460020D3680B4201D0012000E0002068
:1006B00070470146C86880B2704701617047416168
:1006C00070470AB1016100E041617047C160704745
:1006D0004FF480320A43826181618261826982695A
:1006E000704702460020424B18684FF6807318404E
:1006F00040EA021008433E4B186070473D49C8610C
:100700007047F0B50A46002300240021002500F0C0
:100710000046B6F1004F02D1354EF16901E0344E8A
:100720007168C0F3034583B200F44016B6F5401F6C
:1007300008D121F070612E4E766826F070662C4F3D
:100740007E6012E000F48016B6F5801F06D1032605
:1007500006FA05F4A14341F0706106E0460D36014A
:1007600003FA06F6B14341F0706122B1460D36013D
:1007700003FA06F6314300F00046B6F1004F02D10D
:100780001B4EF16101E01A4E7160F0BD30B50022E0
:100790008B071C0F0F2303FA04F2154B08338C1040
:1007A00053F824309343124C08348D1044F825300C
:1007B00023468C1053F824308C07240F00FA04F4DD
:1007C00023430B4C08348D1044F8253030BD0A49C2
:1007D0000860704700080140000C01400010014013
:1007E0000014014000180140001C0140002001409D
:1007F0000000014000002042DC002042DB4800688D
:1008000040F00100D949086008464068D8490840CE
:10081000D649486008460068D6490840D349086070
:100820000846006820F4802008600846406820F4EC
:10083000FE0048604FF41F0088607047CB4909688C
:1008400021F48031C94A11601146096821F48021E0
:100850001160B0F5803F03D0B0F5802F0ED106E0D7
:10086000C249096841F48031C04A116007E0BF49BC
:10087000096841F4A021BD4A116000E000BF00BF3B
:10088000704710B501460022002300204A11012ABA
:1008900002D1B64C236806E0022A02D1B34C236A87
:1008A00001E0B24C636A01F01F02012494401C4233
:1008B00001D0012000E0002010BD70B5002400250B
:1008C000002600BF3120FFF7DCFF0646641CB4F5AC
:1008D000A06F01D0002EF5D03120FFF7D2FF08B174
:1008E000012500E00025284670BD014600209F4AF2
:1008F000106820F0F80040EAC100106070479E497F
:100900000860704702460020984B586820F47C101D
:1009100042EA01031843954B5860704796490866B0
:10092000704701460020914A506820F003000843B8
:10093000506070478D48406800F00C0070470146D9
:1009400000208A4A506820F0F00008435060704749
:1009500001460020854A506820F4E060084350605A
:10096000704701460020814A506820F4605040EAF8
:10097000C1005060704729B17C4A527A02437B4BD8
:100980005A7204E0794A527A8243784B5A7270471D
:100990007A490860704701460020744A506820F484
:1009A00040400843506070470021754A11706F4AFB
:1009B00082F82010012802D0042808D103E0012188
:1009C0006F4A117004E005216D4A117000E000BF0C
:1009D00000BF70476B49086070476449096A01436A
:1009E000624A11627047674944390860704730B500
:1009F00000210022002400235C4D6D6805F00C01ED
:100A000021B1042905D0082923D105E05E4D0560F8
:100A100022E05D4D05601FE0544D6D6805F47012D5
:100A2000524D6D6805F48034022505EB92421CB9E5
:100A3000564D554305600BE04C4D6D6815F4003F75
:100A400003D0524D5543056002E04F4D55430560BC
:100A500002E04D4D056000BF00BF444D6D6805F0DC
:100A6000F00109094A4D6B5C0568DD4045603F4D6A
:100A70006D6805F4E061090A454D6B5C4568DD4031
:100A800085603A4D6D6805F46051C90A404D6B5C54
:100A90004568DD40C560354D6D6805F44041890B02
:100AA0003C4D6B5CC568B5FBF3F5056130BD29B104
:100AB0002E4A526902432D4B5A6104E02B4A526977
:100AC00082432A4B5A61704729B1284A92690243EE
:100AD000264B9A6104E0254A92698243234B9A612E
:100AE000704729B1214AD2690243204BDA6104E000
:100AF0001E4AD26982431D4BDA61704729B11B4AF5
:100B0000D2680243194BDA6004E0184AD268824383
:100B1000164BDA60704729B1144A12690243134B2D
:100B20001A6104E0114A12698243104B1A6170473E
:100B300014494039086070470F49C86470470B4931
:100B4000C87170470948406A40F0807007494862A0
:100B5000704701460020054A92680A4201D00120F0
:100B600000E0002070470149887270470010024081
:100B70000000FFF8FFFFF6FE00004242D8004242AC
:100B8000201002408004424200127A0000093D0019
:100B9000140000202400002010B50446FE488442C2
:100BA00008D10121C014FFF7A9FF0021E014FFF7CD
:100BB000A5FFC4E0B4F1804F08D101210846FFF73A
:100BC000AAFF00210120FFF7A6FFB8E0F348844206
:100BD00008D101210220FFF79EFF00210220FFF72C
:100BE0009AFFACE0EE48844208D101210420FFF7CF
:100BF00092FF00210420FFF78EFFA0E0E948844225
:100C000008D101210820FFF786FF00210820FFF707
:100C100082FF94E0E448844208D101211020FFF7CC
:100C20007AFF00211020FFF776FF88E0DF4884423A
:100C300008D101212020FFF76EFF00212020FFF7BF
:100C40006AFF7CE0DA48844208D101214014FFF7B2
:100C500055FF00216014FFF751FF70E0D548844232
:100C600009D10121C804FFF749FF00214FF40020FA
:100C7000FFF744FF63E0D048844209D10121080511
:100C8000FFF73CFF00214FF48010FFF737FF56E0DD
:100C9000CA48844209D101214805FFF72FFF0021EE
:100CA0004FF40010FFF72AFF49E0C548844208D1FD
:100CB00001214020FFF72FFF00214020FFF72BFFED
:100CC0003DE0C048844208D101218020FFF723FF86
:100CD00000218020FFF71FFF31E0BB48844208D18C
:100CE00001218015FFF717FF0021A015FFF713FF63
:100CF00025E0B648844209D101210804FFF7FEFE31
:100D000000214FF48030FFF7F9FE18E0B04884422C
:100D100009D101214804FFF7F1FE00214FF4003012
:100D2000FFF7ECFE0BE0AB48844208D101218804B8
:100D3000FFF7E4FE00214FF48020FFF7DFFE10BD37
:100D400000220288944B98420ED0994B98420BD0C7
:100D5000B0F1804F08D0914B984205D0904B98420B
:100D600002D0904B984204D14FF68F731A404B88B3
:100D70001A438D4B984207D08C4B984204D04FF6C3
:100D8000FF431A40CB881A4302808B8883850B88E7
:100D90000385814B98420BD0854B984208D08B4BF2
:100DA000984205D08A4B984202D08A4B984201D192
:100DB0000B7A038601238382704770B500240022DA
:100DC0000023058C4FF6FE7635400584028C83881F
:100DD000048B4FF68F752C40B51E2C400D882C438C
:100DE000751E2A400D892A434D882A436A4DA84220
:100DF0000BD06F4DA84208D0744DA84205D0744D59
:100E0000A84202D0734DA84213D14FF6F7752A407D
:100E10004D892A434FF6FB752A408D882A434FF6A9
:100E2000FF652B404FF6FF552B408D892B43CD8915
:100E30002B4383800483CD888586028470BD70B582
:100E4000002400220023058C4FF6EF763540058400
:100E5000028C8388048B48F6FF752C404FF6FF45C3
:100E60002C400D884FF6FF7606EA05252C434FF6F9
:100E7000DF752A400D8906EA05152A434D8806EAE2
:100E800005152A43444DA84202D0494DA8421DD120
:100E90004FF67F752A404D894FF6FF7606EA051515
:100EA0002A434FF6BF752A408D8806EA05152A4366
:100EB0004FF6FF352B404FF2FF752B408D8906EA28
:100EC00085052B43CD8906EA85052B438380048362
:100ED000CD880587028470BD70B5002400220023F0
:100EE000058C4FF6FF6635400584028C8388848B21
:100EF0004FF68F752C404FF6FC752C400D882C4317
:100F00004FF6FF552A400D894FF6FF7606EA052574
:100F10002A434D8806EA05252A431F4DA84202D0E0
:100F2000234DA8421DD14FF2FF752A404D894FF63F
:100F3000FF7606EA05252A434FF6FF352A408D88BD
:100F400006EA05252A434EF6FF752B404DF6FF7540
:100F50002B408D8906EA05152B43CD8906EA051538
:100F60002B4383808483CD888587028470BD70B5D0
:100F7000002200230024058C4EF6FF7635400584C0
:100F8000038C8488828B48F6FF752A404FF6FF4514
:100F90002A400D8820E00000002C014000040040A1
:100FA00000080040000C0040001000400014004009
:100FB00000340140004C0140005001400054014009
:100FC00000180040001C004000200040004001408C
:100FD00000440140004801404FF6FF7606EA05252F
:100FE0002A434DF6FF752B400D8906EA05352B4344
:100FF0004D8806EA05352B43FA4DA84202D0FA4D3A
:10100000A84208D14BF6FF752C408D894FF6FF762C
:1010100006EA85152C4384808283CD88A0F8405051
:10102000038470BD828B4FF2FF331A408283828B20
:101030004FF6FF7303EA01231A4382837047F0B52A
:101040000C461546002200210026078C4EF6FF7C38
:1010500007EA0C070784828B018C4FF6FF7707EABB
:10106000043640F6FF473A404FF6FF7707EA052778
:101070003A434FF6FF7707EA03373A43D94FB8426E
:101080000ED0D94FB8420BD0B0F1804F08D0D74F17
:10109000B84205D0D64FB84202D0D64FB84206D19A
:1010A0004DF6FF77394046F48057394305E047F65F
:1010B000FF57394044F48057394382830184F0BD9F
:1010C000828B4FF6F3731A408283828B0A438283AA
:1010D0007047F0B50C461546002200210026078C0B
:1010E0004FF6FF6C07EA0C070784828B018C4FF6E2
:1010F000FF7707EA04264FF60C773A404FF6FF7762
:1011000007EA03172F433A43B64FB8420ED0B64F03
:10111000B8420BD0B0F1804F08D0B44FB84205D0E0
:10112000B34FB84202D0B34FB84206D14FF6FF5783
:10113000394046F48077394305E04FF2FF57394094
:1011400044F48077394382830184F0BD028B4FF2EF
:10115000FF331A400283028B4FF6FF7303EA012329
:101160001A4302837047F0B50C4615460022002151
:101170000026078C4FF6EF7C07EA0C070784028BEA
:10118000018C4FF6FF7707EA041640F6FF473A4016
:101190004FF6FF7707EA03373A434FF6FF7707EA40
:1011A00005273A438F4FB8420ED08F4FB8420BD02D
:1011B000B0F1804F08D08D4FB84205D08C4FB84267
:1011C00002D08C4FB84206D14FF6DF77394046F057
:1011D0001007394305E04FF65F77394044F01007B8
:1011E000394302830184F0BD028B4FF6F3731A403A
:1011F0000283028B0A4302837047F0B50C46154602
:1012000000220021068C4FF6FE773E400684028BBA
:10121000018C4FF60C7632407E1C06EA03162E43F4
:101220003243704EB0420ED06F4EB0420BD0B0F190
:10123000804F08D06D4EB04205D06D4EB04202D006
:101240006C4EB04206D14FF6FD76314044F00106B7
:10125000314305E04FF6F576314044F00106314365
:1012600002830184F0BD70B505460C465D48854299
:101270000ED05D4885420BD0B5F1804F08D05B4859
:10128000854205D05A48854202D05A48854200D14D
:1012900000E000BF208850B92389A28861882846D1
:1012A000FFF7ABFFE1882846FFF79EFF25E0208887
:1012B00004280AD12389A28861882846FFF753FFB2
:1012C000E1882846FFF742FF17E0208808280AD166
:1012D0002389A28861882846FFF7FBFEE18828461B
:1012E000FFF7EEFE09E02389A28861882846FFF710
:1012F000A6FEE1882846FFF795FE70BD2DE9F04176
:1013000005460C4600260127608808B9022600E041
:101310000026A088012801D1022700E001272088AB
:10132000A0B92389A28861882846FFF766FFE18873
:101330002846FFF759FF23893A4631462846FFF7EA
:1013400012FFE1882846FFF701FF13E02389A288F6
:1013500061882846FFF707FFE1882846FFF7F6FE79
:1013600023893A4631462846FFF747FFE188284659
:10137000FFF73AFFBDE8F0810A884B881A438B8853
:101380001A43CB881A430B891A434B891A438B891A
:101390001A43A0F8442070474FF6FF718180002166
:1013A0000180C1804180017270470021018041802D
:1013B0008180C180018141818181C181704700218B
:1013C00001804180012181800021C180018170471D
:1013D0000021018041808180C18001814181818122
:1013E00070470000002C0140003401400004004020
:1013F00000080040000C004021B1028842F00102C8
:10140000028004E002884FF6FE731A4002807047A3
:1014100031B1B0F8442042F40042A0F8442005E085
:10142000B0F84420C2F30E02A0F8442070471AB16D
:1014300083890B43838102E083898B4383817047D7
:101440008182704741EA0203A0F8483070471AB120
:1014500083890B43838102E083898B4383817047B7
:1014600001894FF6F8721140018170470A46002148
:1014700001894FF68F73194011430181704730B5D0
:1014800004460D4629462046FFF7F0FF208940F02C
:101490000700208130BD2DE9F04104460D46164677
:1014A0001F46602D06D13B46012231462046FFF7FC
:1014B0005AFE05E03B46012231462046FFF79DFEDD
:1014C00029462046FFF7D2FF208940F007002081FF
:1014D000BDE8F08130B50C4600210189C9B24FF654
:1014E000FF7505EA0325154325432943018130BDD6
:1014F0002DE9F04105460E4617469846002443461E
:101500003A4631462846FFF7E5FF2C894FF6F8703A
:10151000044044F007044FF68F70044044F0700418
:101520002C81BDE8F081F0B504460D4616461F46F5
:101530003B46324629462046FFF7CCFF208940F43F
:1015400080402081F0BD0185828270470A460021DB
:1015500001884FF68F731940114301807047F0B531
:101560000C4615461E460021002200230189028BED
:10157000038C4FF6F877394021434FF6FC473A4049
:1015800040F201173A434FF6DD773B404FF6FF77C5
:1015900007EA06172F433B43018102830384F0BD12
:1015A0000A460021018B4FF68F73194011430183C6
:1015B00070470A460021018B48F6FF7319404FF629
:1015C000FF7303EA02231943018370470A4600218F
:1015D000818B4FF68F7319401143818370470A4600
:1015E0000021818B48F6FF7319404FF6FF7303EA21
:1015F000022319438183704721B1028842F080029F
:10160000028004E002884FF67F731A400280704720
:1016100021B1828842F00402828004E082884FF681
:10162000FB731A408280704721B1828842F0080221
:10163000828004E082884FF6F7731A4082807047F8
:1016400021B1828842F00102828004E082884FF654
:10165000FE731A40828070470A460021018B4FF6C4
:10166000F77319401143018370470A460021018B2B
:101670004FF2FF7319404FF6FF7303EA0223194339
:10168000018370470A460021818B4FF6F77319409A
:101690001143818370470A460021818B4FF2FF730B
:1016A00019404FF6FF7303EA022319438183704701
:1016B0000A460021018B4FF6FB7319401143018349
:1016C00070470A460021018B4FF6FF3319404FF651
:1016D000FF7303EA02231943018370470A4600217E
:1016E000818B4FF6FB7319401143818370470A4683
:1016F0000021818B4FF6FF3319404FF6FF7303EA49
:1017000002231943818370470A460021018B4FF65B
:101710007F7319401143018370470A460021018BF2
:10172000C1F30E014FF6FF7303EA0223194301834D
:1017300070470A460021818B4FF67F731940114391
:10174000818370470A460021818BC1F30E014FF659
:10175000FF7303EA02231943818370470A4600217D
:10176000018C4FF6FD7319401143018470470A46FE
:101770000021018C4FF6F773194011430184704723
:101780000A460021018C4FF6DF7319404FF6FF73B4
:1017900003EA02131943018470470A460021018CB1
:1017A0004FF67F7319404FF6FF7303EA0213194394
:1017B000018470470A460021018C4FF6FF531940FF
:1017C0004FF6FF7303EA02231943018470470A4668
:1017D0000021018C4FF2FF7319404FF6FF7303EAAB
:1017E00002231943018470470A460021018C4DF6FB
:1017F000FF7319404FF6FF7303EA02331943018464
:10180000704730B5002301248C40A3B2048C9C4364
:101810000484048C02FA01F5ADB22C43048430BD7B
:1018200030B5002304248C40A3B2048C9C43048470
:10183000048C02FA01F5ADB22C43048430BD70B5BE
:101840000346002000241846183001258D40ACB214
:101850001D8CA5431D8409B1082909D100EB610045
:10186000056825F0700505600568154305600EE004
:101870000D1FC5F34E052844056825F4E0450560B5
:1018800005684FF6FF7606EA02263543056070BD0F
:1018900021B1028842F00202028004E002884FF681
:1018A000FD731A400280704721B1028842F00402A1
:1018B000028004E002884FF6FB731A4002807047F2
:1018C00021B1828842F08002828004E082884FF653
:1018D0007F731A408280704702884FF6F7731A4070
:1018E000028002880A430280704782884FF68F7315
:1018F0001A40828082880A438280704702894FF6AC
:10190000F8731A40028102890A43028170470289F2
:101910004FF67F731A40028102890A4302817047A1
:101920008184704781857047818670470187704741
:1019300081877047A0F84010704702884FF6FF4338
:101940001A40028002880A43028070470146888E4E
:1019500070470146088F70470146888F70470146DF
:10196000B1F8400070470146888C70470146088DE9
:10197000704702460020138A0B4201D0012000E08C
:1019800000207047CA430282704730B502460020EB
:1019900000230024158A05EA0103958905EA01045C
:1019A00013B10CB1012000E0002030BDCA43028217
:1019B0007047000010B50446FB48844209D101215C
:1019C0008803FFF79BF800214FF48040FFF796F85B
:1019D00032E0F648844209D101214804FFF79BF820
:1019E00000214FF40030FFF796F825E0F0488442DC
:1019F00009D101218804FFF78EF800214FF48020DF
:101A0000FFF789F818E0EB48844209D10121C804A6
:101A1000FFF781F800214FF40020FFF77CF80BE07E
:101A2000E548844208D101210805FFF774F8002138
:101A30004FF48010FFF76FF810BD2DE9F04786B026
:101A400005460E460024A24600BFA1460027B089E5
:101A500000B100BF2F462C8A4CF6FF700440F0887E
:101A600004432C82AC894EF6F3100440B0883189CF
:101A70000843718908430443AC81AC8A4FF6FF40A8
:101A80000440B0890443AC8201A8FEF7B0FFC64809
:101A9000874202D1DDF810A001E0DDF80CA0A88992
:101AA00010F4004F08D00AEBCA0000EB0A103168AE
:101AB0004900B0FBF1F807E00AEBCA0000EB0A109E
:101AC00031688900B0FBF1F86420B8FBF0F0040144
:101AD0002009642101FB1089A88910F4004F08D067
:101AE000322000EBC900B0FBF1F000F00700044326
:101AF00008E0322000EB09106421B0FBF1F000F0A7
:101B00000F0004432C8106B0BDE8F0874FF4165156
:101B1000016000218180C18001810C21418100216F
:101B20008181704710B502460020108A4FF2FF03F2
:101B300018400B884C8823438C882343CC8823434C
:101B40001843108210BD0021018041808180C18036
:101B5000704721B1828942F40052828104E0828977
:101B60004DF6FF731A4082817047F0B5034600249A
:101B7000002600250020A1F510676A3F00D100BFB4
:101B80001846C1F3421401F01F06012707FA06F5B3
:101B9000012C01D10C3004E0022C01D1103000E006
:101BA00014301AB107682F43076002E00768AF439B
:101BB0000760F0BD1AB1838A0B43838202E0838AF7
:101BC0008B4383827047028A4FF6F0731A40028279
:101BD000028A0A430282704782894FF2FF731A40D9
:101BE000828182890A438281704721B1828942F0D1
:101BF0000202828104E082894FF6FD731A408281DD
:101C00007047028A4FF6DF731A400282028A0A4343
:101C10000282704721B1028A42F48042028204E0CB
:101C2000028A4BF6FF731A4002827047C1F3080222
:101C30008280704701468888C0F308007047818918
:101C400041F0010181817047028BD2B20283028B85
:101C500042EA012202837047028B02F47F42028330
:101C6000028B0A430283704721B1828A42F020022C
:101C7000828204E0828A4FF6DF731A4082827047C4
:101C800021B1828A42F01002828204E0828A4FF6F9
:101C9000EF731A408282704721B1828A42F00802B3
:101CA000828204E0828A4FF6F7731A40828270477C
:101CB00021B1828942F40042828103E08289C2F329
:101CC0000E028281704721B1828A42F400628282D0
:101CD00004E0828A4FF2FF731A4082827047828A40
:101CE0004FF6FB731A408282828A0A4382827047CF
:101CF00021B1828A42F00202828204E0828A4FF697
:101D0000FD731A408282704702460020B1F5007FC1
:101D100000D100BF13880B4201D0012000E0002059
:101D2000704701F40072B2F5007F00D100BFCA43D2
:101D30000280704770B50246002400230025002071
:101D4000A1F510666A3E00D100BFC1F3421501F053
:101D50001F03012606FA03F3012D02D196893340B1
:101D600006E0022D02D1168A334001E0968A334004
:101D70000C12012606FA04F41688344013B10CB193
:101D8000012000E0002070BD10B500220023A1F565
:101D900010646A3C00D100BF0A1201249440A3B22F
:101DA000DC43048010BD00000038014000440040C6
:101DB00000480040004C00400050004000F1080185
:101DC00041604FF0FF31816000F10801C1600161A5
:101DD00000210160704700210161704742684A603C
:101DE00093688B60936859609160086103685B1C1D
:101DF0000360704710B502460B685C1C01D1106986
:101E000007E002F1080000E04068446824689C4252
:101E1000FAD944684C604C68A160886041600A61EE
:101E20001468641C146010BD01460A69D1E90130D0
:101E30009860D1E9010358605068884201D18868F0
:101E40005060002008611068401E106010687047E4
:101E500070B505460E462C4601F0DBFBD4E90F12A7
:101E6000206801FB020060600020A0632068A06081
:101E7000E06B401E226C216800FB0210E060FF2036
:101E800084F8440084F8450056B9206908B9012057
:101E900000E0002060B904F1100000F0FFFF07E04F
:101EA00004F11000FFF78AFF04F12400FFF786FF1A
:101EB00001F0BEFB012070BD2DE9F04106460D4644
:101EC00017469846069C0DB9246000E02760E6633B
:101ED000256401212046FFF7BBFFBDE8F0812DE915
:101EE000F84307460D4690460DB9002601E007FB72
:101EF00005F606F1480001F0D8FA044644B104F1B1
:101F0000480943464A46294638460094FFF7D4FF1D
:101F10002046BDE8F88370B5044601F07AFB94F9D9
:101F2000455010E0606A08B9012000E0002038B98F
:101F300004F1240000F0B2FF18B101F041F800E014
:101F400003E0681E45B2002DECDC00BFFF2084F8E2
:101F5000450001F06DFB01F05CFB94F9445010E08A
:101F6000206908B9012000E0002048B904F1100000
:101F700000F094FF08B101F023F8681E45B200E0BC
:101F800001E0002DECDC00BFFF2084F8440001F0EC
:101F90004FFB70BD70B5054601F03BFBA86BE96BCC
:101FA000884201D1012400E0002401F041FB2046D9
:101FB00070BD2DE9F04104460F4615464FF000086C
:101FC000A66B206C40B9206860BB606801F03FF8E8
:101FD00080460020606025E07DB93946226CA0680B
:101FE00001F0CEFD216CA0680844A060D4E9011086
:101FF000884217D32068A06014E03946226CE0685C
:1020000001F0BEFD216CE068401AE0602168E068E4
:10201000884203D2216C6068401AE060022D01D131
:1020200006B1761E701CA0634046BDE8F0812DE924
:10203000FF4383B006460F461D464FF00008344666
:1020400000BF01F0E6FAA06BE16B884201D3022DDC
:1020500017D12A4639462046FFF7ABFF8146606A12
:1020600008B9012000E0002020B904F1240000F0AC
:1020700015FF00E000BF01F0DBFA012007B0BDE86A
:10208000F083059818B901F0D3FA0020F6E7B8F10B
:10209000000F04D101A800F062FF4FF0010801F029
:1020A000C7FA00F072FC01F0B4FA94F94400401C45
:1020B00001D184F8440094F94500401C01D184F812
:1020C000450001F0B5FA05A901A800F04FFFF0B9ED
:1020D0002046FFF75FFFA0B104F11000059900F062
:1020E000BBFE2046FFF717FF00F09AFB0028A8D19F
:1020F0004FF08050F7490860BFF34F8FBFF36F8FE9
:102100009FE72046FFF707FF00F08AFB99E720468C
:10211000FFF701FF00F084FB0020AFE710B5044695
:102120004CB1002060602060E06000231A46194630
:102130002046FFF77CFF10BD2DE9F0410446012643
:102140000027224600210120FFF7C9FE0546284648
:10215000FFF7E4FF2846BDE8F0812DE9F05F054672
:102160008A4616461F462C4600BFBF21EFF311805A
:1021700081F31188BFF34F8FBFF36F8F00BF81468C
:10218000A06BE16B884201D3022F20D194F945B0B6
:102190003A4651462046FFF70CFF1BF101000ED1D5
:1021A000606A08B9012000E0002068B904F1240049
:1021B00000F074FE40B13EB10120306004E00BF14C
:1021C000010040B284F845004FF0010801E04FF0F3
:1021D000000800BF89F3118800BF4046BDE8F09FAA
:1021E0002DE9F04705460E462C4600BFBF21EFF310
:1021F000118081F31188BFF34F8FBFF36F8F00BF42
:102200008046D4F83890E06B48451DD994F945A034
:1022100009F10100A0631AF101000ED1606A08B94A
:10222000012000E0002068B904F1240000F036FE2F
:1022300040B13EB10120306004E00AF1010040B23B
:1022400084F84500012700E0002700BF88F31188CB
:1022500000BF3846BDE8F08770B5054601F0D9F9F2
:10226000A86B08B9012400E0002401F0E1F9204640
:1022700070BD70B504460D46206C70B1216CE068ED
:102280000844E0606168E068884201D32068E0604B
:102290002846226CE16801F073FC70BD2DE9FF4710
:1022A00082B0054689461E464FF0000A2C4600BF04
:1022B00001F0AFF9D4F83880B8F1000F29D0E76801
:1022C00049462046FFF7D5FF96B9A8F10100A06363
:1022D000206810B900F0F2FE6060206908B90120A2
:1022E00000E0002078B904F1100000F0D7FD0AE00A
:1022F000E760606A08B9012000E0002018B904F125
:10230000240000F0CBFD01F093F9012006B0BDE8F8
:10231000F087049818B901F08BF90020F6E7BAF1BC
:10232000000F04D1684600F01AFE4FF0010A01F0D8
:102330007FF900F02AFB01F06CF994F94400401C8D
:1023400001D184F8440094F94500401C01D184F87F
:10235000450001F06DF904A9684600F007FE38BB9E
:102360002046FFF779FFE8B1206830B901F051F954
:10237000606800F02CFE01F05BF904F12400049980
:1023800000F06AFD2046FFF7C6FD00F049FA00287C
:102390008ED14FF080504F490860BFF34F8FBFF38D
:1023A0006F8F85E72046FFF7B6FD00F039FA7FE72B
:1023B0002046FFF7B0FD00F033FA2046FFF74CFF50
:1023C0000028EED00020A1E72DE9F05F05468A46FF
:1023D00016462C4600BFBF21EFF3118081F3118810
:1023E000BFF34F8FBFF36F8F00BF8046D4F8389094
:1023F000B9F1000F21D094F944B051462046FFF7BF
:1024000038FFA9F10100A0631BF101000ED1206982
:1024100008B9012000E0002068B904F1100000F0C4
:102420003DFD40B13EB10120306004E00BF1010000
:1024300040B284F84400012700E0002700BF88F381
:10244000118800BF3846BDE8F09F2DE9F0470546EA
:1024500089462C4600BFBF21EFF3118081F311881C
:10246000BFF34F8FBFF36F8F00BF0746A06B48B11C
:10247000D4F80C8049462046FFF7FBFEC4F80C80D8
:10248000012600E0002600BF87F3118800BF304618
:10249000BDE8F08770B5044601F0BBF8A56B01F00C
:1024A000C7F8284670BD70B50446254601F0B1F85E
:1024B000D5E90E10461A01F0BBF8304670BD014652
:1024C000886B704770B504462546284601F040F8F1
:1024D00070BD000004ED00E001468A6B0AB90120DE
:1024E00000E00020704701468A6BCB6B9A4201D115
:1024F000012000E00020704710B5002407E004EB45
:102500008401FE4A02EB8100FFF758FC641C402C5A
:10251000F5D3FB48FFF752FCFA48FFF74FFCFA48A7
:10252000FFF74CFCF948FFF749FCF948FFF746FC78
:10253000F348F8490860F348F749086010BD10B542
:10254000044601F066F8F5480068401CF34908604D
:10255000F348006840B9F248046008460068012862
:102560000DD1FFF7C9FF0AE0EE48006838B9EC4822
:102570000068C06AE16A884201D8E9480460EA4814
:102580000068401CE8490860E849E06A0968884238
:1025900002D9E649E06A0860E16A01EB8101D74AA5
:1025A00002EB8100211DFFF719FC01F041F8DD4825
:1025B000006808B1DA48006810BD2DE9FF5F804669
:1025C0000F469146DDE90E6A109CA9F10100216BCE
:1025D00001EB800B2BF0070B002507E0795D04F180
:1025E00034004155785D00B902E06D1C202DF5D313
:1025F00000BF002153200155402E00D33F26E66244
:1026000066650020A065201DFFF7E5FB04F11800BA
:10261000FFF7E1FB2461C6F14000A0616462002085
:10262000E06584F8600041465846039A00F0C5FF13
:102630002060BAF1000F01D0CAF80040BDE8FF9F4A
:102640002DE9FF4F85B0804689461746DDE912AB7C
:10265000B80000F02AFF064656B1642000F025FFBE
:1026600004460CB1266304E0304600F071FF00E040
:1026700000247CB10020CDE900ABCDE902403A4610
:1026800049464046089BFFF798FF2046FFF757FF53
:10269000012501E04FF0FF35284609B0BDE8F08F75
:1026A0009C490968096809B9012100E0002121B1AC
:1026B0004FF0FF319E4A116006E096490968C968EB
:1026C000C8689B4A41681160704710B50446206B8A
:1026D00000F03EFF204600F03BFF10BD70B5054600
:1026E00000F097FF15B98E48006800E028460446C0
:1026F000201DFFF799FBA06A18B104F11800FFF73D
:1027000093FB89480068401C87490860844800683A
:10271000844209D1211D7D48FFF760FB8548006890
:10272000401C8449086009E07C480068401E7B49E1
:1027300008602046FFF7C9FFFFF7B2FF00F078FFFF
:102740007848006858B176480068844207D14FF055
:10275000805079490860BFF34F8FBFF36F8F70BD12
:102760002DE9F041002775480068002850D17448D1
:102770000068451C724805608DB96648D0F8008035
:1027800065480068634908606348C0F800806D4888
:102790000068401C6B490860FFF782FF00BF644877
:1027A0000068854233D300BF5A480068006808B902
:1027B000012000E0002020B14FF0FF305C490860AC
:1027C00024E054480068C068C4686668B54202D214
:1027D000574806601AE0201DFFF726FBA06A18B1D3
:1027E00004F11800FFF720FB5049E06A09688842AD
:1027F00002D94E49E06A0860E16A01EB81013F4A73
:1028000002EB8100211DFFF7E9FACDE700BF04E0EC
:102810004D480068401C4C4908603846BDE8F081CE
:1028200070B50024002600F0F4FE44480068401E05
:102830004249086008460068002845D137480068CA
:10284000002841D023E03048C068C46804F1180073
:10285000FFF7EAFA201DFFF7E7FA3449E06A096852
:10286000884202D93149E06A0860E16A01EB8101DE
:10287000224A02EB8100211DFFF7B0FA2849E06AE5
:102880000968C96A884202D30120304908601E489D
:10289000006808B9012000E000200028D3D00CB166
:1028A000FFF7FEFE2848056865B100BFFFF758FF37
:1028B00010B10120254908606D1E002DF6D10020C1
:1028C000214908602148006800F0B2FE304670BD22
:1028D0002DE9F04105460E46194807681048006882
:1028E000001DFFF7A1FA681C32D136B10C4801680F
:1028F000091D0748FFF772FA45E029E0980000201B
:1029000098050020AC050020C0050020D40500205B
:10291000E80500205C00002060000020300000205E
:10292000280000203C0000204C000020380000203F
:10293000500000202C00002004ED00E05800002092
:102940003400002048000020400000204400002007
:102950007C19F74800684460BC4207D2F44801681B
:10296000091DF4480068FFF745FA0CE0F0480168DB
:10297000091DF1480068FFF73DFAF04800688442FD
:1029800001D2EE480460BDE8F081ED480068401CCB
:10299000EB49086070472DE9F047044688464FF040
:1029A0000009FFF7F2FFE7480668206800EB08051A
:1029B0002068B04207D92068A8420BD9B54209D98E
:1029C0004FF0010906E02068A84201D8B54201D9BC
:1029D0004FF001092560B9F1000F03D0A81B0021B9
:1029E000FFF776FFFFF71CFF07463FB94FF0805017
:1029F000D5490860BFF34F8FBFF36F8FBDE8F087F5
:102A000070B50446002544B1FFF7BFFF0021204602
:102A1000FFF75EFFFFF704FF05463DB94FF080501A
:102A2000C9490860BFF34F8FBFF36F8F70BD70B59A
:102A3000044600F0EEFD14B9BD48006800E02046F1
:102A40000646F56A00F0F4FD284670BD70B50246F2
:102A500000BFBF25EFF3118485F31188BFF34F8FBB
:102A6000BFF36F8F00BF214612B9B14C246800E05C
:102A700014462346D86A00BF81F3118800BF70BD99
:102A80002DE9F04707460D464FF00009402D00D3D1
:102A90003F2500F0BEFD17B9A548006800E03846A4
:102AA0000446666DAE4243D0B5420BD9A0480068DB
:102AB00084420DD09E480068C06AA84208D84FF0F2
:102AC000010905E09A480068844201D14FF00109EC
:102AD000D4F82C80E16A606D884200D1E5626565BA
:102AE000A06910F0004F02D1C5F14000A06108EBD1
:102AF0008801964A02EB81016069884201D1012078
:102B000000E0002098B1201DFFF78EF99049E06A9F
:102B10000968884202D98E49E06A0860E16A01EBDF
:102B200081018A4A02EB8100211DFFF757F900BF9E
:102B300000F07EFDBDE8F0878148006818B10120F3
:102B40008449086028E000208249086080480168C4
:102B500000E0491E01EB81007C4A52F8200008B9D0
:102B6000012000E000200028F3D101EB8102774B27
:102B700003EB820042685268426000F10802436839
:102B8000934202D14268526842604268D268684B00
:102B90001A606F48016000BF704770B5054600F0CD
:102BA00038FD15B96248006800E028460446201D3B
:102BB000FFF73AF9A06A18B104F11800FFF734F9E9
:102BC000211D6548FFF70AF900F032FD63480068EF
:102BD00028B100F01EFDFFF763FD00F029FD544809
:102BE0000068844217D15D48006840B14FF08050C2
:102BF00055490860BFF34F8FBFF36F8F0BE0564806
:102C0000006857490968884203D100204849086094
:102C100001E0FFF791FF70BD10B5014600200A46A4
:102C20004D4C5369A34201D1012300E0002373B14D
:102C30004C4C936AA34201D1012300E0002333B935
:102C4000936A0BB9012300E0002303B1012010BDFA
:102C500070B505462C460CB33548006884421DD03B
:102C600000F0D7FC2046FFF7D7FFA8B1201DFFF7E3
:102C7000DBF83749E06A0968884202D93449E06ADA
:102C80000860E16A01EB8101304A02EB8100211DFD
:102C9000FFF7A4F82648006800F0CAFC70BD2DE9D3
:102CA000F04106460027344600BFBF21EFF31180F4
:102CB00081F31188BFF34F8FBFF36F8F00BF0546BD
:102CC0002046FFF7A9FF18B31D480068D8B9184976
:102CD000E06A0968C96A884200D30127201DFFF70E
:102CE000A3F81B49E06A0968884202D91849E06ADA
:102CF0000860E16A01EB8101144A02EB8100211DA9
:102D0000FFF76CF804E004F118011648FFF766F8C5
:102D100000BF85F3118800BF3846BDE8F08170B56B
:102D200041E0FFF732FE10480068F8B901201EE0CC
:102D300028000020600000205C00002050000020DF
:102D4000580000203400002004ED00E0980000202E
:102D50003800002044000020E80500203C0000204E
:102D600030000020C0050020D405002000200546CA
:102D7000FFF756FDBDB900F04CFCFE48C068C468C2
:102D8000201DFFF751F8FC480068401EFA49086012
:102D9000FA480068401EF949086000F049FC2046E6
:102DA000FFF793FC00BFF54800680028B9D170BD5B
:102DB00000BFFFF7B4FF4FF08050F1490860BFF348
:102DC0004F8FBFF36F8FF4E71CB5EE4800210B4621
:102DD0008022CDE90010ECA1ED48FFF731FC04465C
:102DE000012C14D100BFBF2080F31188BFF34F8F97
:102DF000BFF36F8F00BF4FF0FF30E649086001203E
:102E0000E54908600020E549086000F0ECFB1CBDC6
:102E100010B500BFBF2080F31188BFF34F8FBFF301
:102E20006F8F00BF0020DC49086000F0F1FB10BD8F
:102E3000DA49086870470021D84A10687047CE48C0
:102E400000687047014611B9D548006800E008469F
:102E5000024602F13400704770B505460C46D04872
:102E6000016818312846FEF7C5FF01212046FFF70B
:102E70002FFD70BD70B506460C46154644F0004067
:102E8000C74909688861C648016818313046FEF7AD
:102E9000A5FF01212846FFF71BFD70BD70B5064652
:102EA000F068C46804F11800FEF7BEFFBD48006872
:102EB000A0B9201DFEF7B8FFBB49E06A0968884247
:102EC00002D9B949E06A0860E16A01EB8101B74AB9
:102ED00002EB8100211DFEF781FF04E004F11801DF
:102EE000B348FEF77BFFAE49E06A0968C96A8842C9
:102EF00004D901250120AF49086000E000252846DB
:102F000070BD2DE9F04105460F4647F000402860AE
:102F1000EC682846FEF788FF201DFEF785FFA249D2
:102F2000E06A0968884202D99F49E06A0860E16A5C
:102F300001EB81019D4A02EB8100211DFEF74EFF4E
:102F40009749E06A0968C96A884204D901260120C4
:102F50009849086000E000263046BDE8F0819649B7
:102F6000096801608D4909684160704770B5044681
:102F70000D4600F04EFB894802682868401C01D1CC
:102F8000002619E08C4920680968884204D06068EE
:102F9000904201D801260FE06068101A2968884223
:102FA00009D228686168511A401A28602046FFF744
:102FB000D6FF002600E0012600F03AFB304670BD47
:102FC00001207C490860704775490868704770B5F2
:102FD00005462C46002D39D07149E06A0968C96A56
:102FE000884233D2A06910F0004F05D16C480068C8
:102FF000C06AC0F14000A061E16A01EB81016B4A47
:1030000002EB81016069884201D1012000E00020CB
:10301000C0B1201DFEF708FF61480068C06AE06289
:103020006149E06A0968884202D95F49E06A08603C
:10303000E16A01EB81015D4A02EB8100211DFEF78F
:10304000CDFE03E056480068C06AE06270BD70B50E
:1030500005462C4600261DB3A06D401EA065616D7F
:10306000E06A88421CD0A06DD0B9201DFEF7DCFEBE
:10307000606DE062E06AC0F14000A0614A49E06A28
:103080000968884202D94849E06A0860E16A01EBB0
:103090008101464A02EB8100211DFEF79FFE0126B9
:1030A000304670BD3E49096888693D490968C96A6A
:1030B000C1F140013A4A126891617047384800688E
:1030C00030B13749096801F15800896D491C016028
:1030D00033480068704770B506460D4600F099FA0F
:1030E0002F480068C06D88B901202D49096881F812
:1030F00060005DB101212846FFF7EAFB4FF08050E8
:103100001F490860BFF34F8FBFF36F8F00F090FA35
:1031100000F07FFA22480068C46D4CB126B100204F
:103120001F490968C86503E0601E1D490968C86534
:1031300000201B49096881F8600000F079FA2046F8
:1031400070BD2DE9F0410746884614461D4600F043
:1031500060FA1348006890F8600002283DD01049DA
:10316000096801F15C00C96DB943016001200C4997
:10317000096823E0D4050020300000202C00002046
:1031800004ED00E05400002049444C4500000000DC
:10319000B12D0008500000203C0000203400002029
:1031A000280000205800002038000020980000204F
:1031B000C0050020440000204800002081F8600085
:1031C0005DB101212846FFF783FB4FF08050A549F0
:1031D0000860BFF34F8FBFF36F8F00F029FA00F044
:1031E00018FA1CB1A0480068C06D20609E480068B5
:1031F00090F86000012801D1002608E09A4909688A
:1032000001F15C00C96D21EA08010160012600207E
:103210009549096881F8600000F00AFA3046BDE877
:10322000F0812DE9F04781460D4616461F464FF0C6
:10323000010A4C4600F0EDF90FB1E06D386094F8EA
:103240006080022084F86000052E17D2DFE806F0C7
:103250001503070B0D00E06D2843E0650EE0E06DFF
:10326000401CE0650AE0E56508E0B8F1020F01D016
:10327000E56501E04FF0000A00E000BF00BFB8F1D3
:10328000010F15D1201DFEF7CFFD7849E06A0968CE
:10329000884202D97549E06A0860E16A01EB810160
:1032A000734A02EB8100211DFEF798FD6E4800680D
:1032B00000F0BEF95046BDE8F0872DE9F84F83468F
:1032C0000D4616461F46DDF828A0012000905C46FA
:1032D00000BFBF21EFF3118081F31188BFF34F8F3F
:1032E000BFF36F8F00BF81460FB1E06D386094F877
:1032F0006080022084F86000052E17D2DFE806F017
:103300001503070B0D00E06D2843E0650EE0E06D4E
:10331000401CE0650AE0E56508E0B8F1020F01D065
:10332000E56501E00020009000E000BF00BFB8F1BB
:10333000010F2CD14F480068A0B9201DFEF774FD85
:103340004A49E06A0968884202D94849E06A086047
:10335000E16A01EB8101464A02EB8100211DFEF783
:103360003DFD04E004F118014348FEF737FD3E49F6
:10337000E06A0968C96A884209D9BAF1000F03D026
:103380000120CAF8000002E001203C49086000BFAB
:1033900089F3118800BF0098BDE8F88F2DE9F0414E
:1033A00005460E462C4600BFBF21EFF3118081F386
:1033B0001188BFF34F8FBFF36F8F00BF074694F89C
:1033C0006080022084F86000E06D401CE065B8F188
:1033D000010F29D127480068A0B9201DFEF724FD60
:1033E0002249E06A0968884202D92049E06A0860F7
:1033F000E16A01EB81011E4A02EB8100211DFEF70B
:10340000EDFC04E004F118011B48FEF7E7FC164947
:10341000E06A0968C96A884206D916B1012030609D
:1034200002E001201549086000BF87F3118800BF42
:10343000BDE8F08170B5054615B90B48006800E09D
:103440002846064600F0E5F896F86000022804D108
:10345000002086F86000012400E0002400F0E8F875
:10346000204670BD04ED00E0280000203800002058
:103470009800002058000020C005002044000020D3
:10348000434A22F00700434A10600022414B5A6031
:103490004EF6F872404B5A6000221A6001464EF612
:1034A000F8724A601A460A6070472DE9F0410446F6
:1034B0004FF00008FFF769FA3848006820B9FFF7B5
:1034C000DFFF01203549086044B1083414F0070FCC
:1034D00004D004F00700C0F108000444002C32D0EE
:1034E0004EF6F87084422ED22A4F3846056801E025
:1034F0002F462D686868A04202D228680028F7D1BC
:10350000254885421FD0386800F1080828683860CF
:103510006868001B102810D92E196868001B70609D
:103520006C6071681B4800E00068026852688A425B
:10353000FAD302683260066000BF194968680968FA
:10354000081A17490860FFF76BF94046BDE8F0819B
:1035500070B506463546B6B1083D2C46FFF715FA5C
:1035600061680C4800E00068026852688A42FAD339
:103570000268226004600A496068096808440849D2
:103580000860FFF74DF970BD054800687047704747
:10359000040600206C000020740000206800002059
:1035A0006400002000BFBF2080F31188BFF34F8F5D
:1035B000BFF36F8F00BF00BFFEE7001F4FF08073A7
:1035C0000360001F21F001030360001F2B4B036009
:1035D000143802602038704729484FF0E0214861D4
:1035E00007200861704710B52648006840F47F0046
:1035F000244908600846006840F07F400860FFF7F3
:10360000EBFF002020490860FCF7AEFD002010BD54
:10361000704700BFBF2080F31188BFF34F8FBFF307
:103620006F8F00BF18480068401C1749086070473A
:1036300015480068401E144908600846006820B913
:10364000002080F3118800BF00BF704710B500BF95
:10365000BF2080F31188BFF34F8FBFF36F8F00BF80
:10366000FFF77EF820B14FF0805006491C39086002
:1036700000BF002080F3118800BF10BDA5350008F1
:103680003F19010020ED00E07C00002030B55948D2
:103690000068594AB0FBF2F1B1F1807F01D30120FB
:1036A0001DE021F07F40401E4FF0E0225061501796
:1036B0000F22002807DA13071D0E504B00F00F04ED
:1036C000241F1D5503E013071C0E4D4B1C5400BF57
:1036D00000204FF0E022906107201061002008B127
:1036E00000BFFEE730BD08B54FF4A060FCF76CFEEC
:1036F0001C208DF8000000208DF801008DF80200DC
:1037000001208DF803006846FCF763FE08BD0EB586
:10371000FFF7E9FF01210846FDF7E3F94FF080408C
:10372000FDF73AFA4FF08040FDF79AFE0920ADF818
:1037300000000020ADF80600ADF802002320ADF82F
:10374000040069464FF08040FDF7FAFA012188072E
:10375000FEF718F9012211469007FDF768FE0121D6
:103760008807FDF749FE0EBD0EB501210220FDF7C9
:10377000B8F92448FDF710FA2248FDF771FE002041
:10378000ADF80000ADF80600ADF802004FF6FF708E
:10379000ADF8040069461B48FDF7D2FA012119482B
:1037A000FEF7F0F8002201211648FDF740FE012146
:1037B0001448FDF721FE0EBD1349086000BF1249F1
:1037C00009680029FBD170470F48006820B10E48F6
:1037D0000068401E0C490860704710B50121880739
:1037E000FEF7D3F828B1FFF7EFFF01218807FEF7B6
:1037F000C9F810BD0000002040420F0018ED00E0A5
:1038000000E400E0000400408000002002468A42FC
:1038100005DA4FF6FF70401A104480B27047501A14
:1038200080B2FBE70020FFF702F9044637E03220C0
:10383000FFF7E6F80020FFF7FAF80446392C0ED21D
:103840006348FEF790F863490880611E624A52F8A7
:103850002100FFF7FDF90020FFF79FF90BE05C481E
:10386000FEF781F85B4908805B490868FFF7F0F9CB
:103870000020FFF792F95648FEF775F8574908807F
:103880005448018855480088FFF7C0FF05462B467D
:10389000524802884F48018851A000F0E7F9C6E776
:1038A00008B501214820FDF70FF92020ADF80000F0
:1038B00002208DF8020010208DF80300694652485E
:1038C000FCF750FE69465148FCF74CFE08BD86B037
:1038D00005464FA207CA03AB07C3284600F0C6F946
:1038E000FFF7DEFF002201210A20FEF7F8FA4B491C
:1038F000086000240EE0384800EB8400E11C00233F
:103900008022CDE9001046A1AFF2E700FEF798FE55
:10391000601C84B2372CEEDB15E020213B48FCF71D
:10392000CEFE20213848FCF7C8FE3220FFF768F8A9
:1039300020213648FCF7C1FE20213348FCF7BFFEAA
:103940003220FFF75DF8E8E71CB54FF4E13000F0F6
:1039500099F8354800684FF47A72B0FBF2F1B1F192
:10396000807F00D31DE021F07F40401E4FF0E02219
:10397000506150170F22002807DA13071D0E2B4B3A
:1039800000F00F04241F1D5503E013071C0E284BE5
:103990001C5400BF00204FF0E0229061072010610E
:1039A00000BFFFF7E1FE0120FEF7C6FB21490860DA
:1039B0000020022120A38022CDE9001024A1AFF233
:1039C000F100FEF73DFEFFF7FFF900BFFEE7000044
:1039D0000004004088000020FCF500208A00002040
:1039E00074696D65313D25642C2074696D65323DC7
:1039F00025642C2074696D65322D74696D65313DC7
:103A000025640D0A00000000000C01400018014070
:103A100031323334353637383930000090000020E9
:103A20006D795461736B31000000002018ED00E0E7
:103A300000E400E08C0000206D795F7461736B20FE
:103A400073746172742E2E2E202E2E2E0D0A0000FD
:103A50006D795461736B0000704700BFFEE700BFD3
:103A6000FEE700BFFEE700BFFEE710B5FCF76AFB0C
:103A700010BD704710B5FCF787FB10BD10B5FFF700
:103A8000E5FD10BD10B586B00446012144F20400E6
:103A9000FDF71AF84FF48060ADF8140003208DF89C
:103AA000160004208DF8170005A92A48FCF75AFDD6
:103AB0004FF40070ADF8140018208DF8170005A918
:103AC0002448FCF74FFD2448FDF774FF4FF4A06035
:103AD000FCF77AFC25208DF8000003208DF801000A
:103AE0008DF8020001208DF803006846FCF771FC98
:103AF00001940020ADF80800ADF80A00ADF80C0004
:103B00000C20ADF80E000020ADF8100001A91248FD
:103B1000FDF793FF012240F225510F48FEF725F8EB
:103B200001210D48FEF715F80CA000F09FF806B033
:103B300010BD70B504460D46E1B20748FEF776F8B1
:103B400000BF40210448FEF7DFF80028F9D02046E6
:103B500070BD000000080140003801400A0D5541C9
:103B600052542054455354210AB4AEBFDAB3F5CAB7
:103B7000BCBBAFCDEAB1CFA1ADA1AD0A0000000042
:103B800040EA01039B0703D009E008C9121F08C0DF
:103B9000042AFAD203E011F8013B00F8013B521E5F
:103BA000F9D270472DE9F05F0546002092469B460A
:103BB00088460646814640241BE028464146474643
:103BC000224600F042F853465A46C01A914110D39B
:103BD00011461846224600F029F82D1A67EB010815
:103BE0004F4622460120002100F020F817EB000983
:103BF0004E41201EA4F10104DFDC484631462A462E
:103C00004346BDE8F09F0000064C074D06E0E06823
:103C100040F0010394E8070098471034AC42F6D313
:103C2000FCF78AFA6C3F00088C3F0008202A04DB6E
:103C3000203A00FA02F1002070479140C2F12003BF
:103C400020FA03F3194390407047202A04DB203AFE
:103C500021FA02F00021704721FA02F3D040C2F1AC
:103C60002002914008431946704700000FB4054BED
:103C700010B503A9044A029800F018F810BC5DF8CA
:103C800014FB0000333B00089400002002E008C849
:103C9000121F08C1002AFAD170477047002001E0C6
:103CA00001C1121F002AFBD1704700002DE9FF4F10
:103CB0008DB09B460F460446002639E1252801D0E9
:103CC0000F9959E00025641C9D49A84601222378DC
:103CD000203B02FA03F0084202D00543641CF6E7D9
:103CE00020782E2817D114F8010F45F004052A2852
:103CF0000ED06FF02F022078A0F1300109290AD8E8
:103D000008EB880102EB410100EB0108641CF2E7BB
:103D100057F8048B641C20786C280DD004DC4C28E8
:103D200012D06A2811D104E074280DD07A280CD161
:103D30000AE045F4001507E0617845F480158142FA
:103D400002D1641C05F58015641C2278692A46D0CE
:103D500008DC002A70D0582A69D0632A11D0642A5E
:103D600008D13CE0702A69D0732A14D0752A5CD03F
:103D7000782A5CD00F9910465A46904706F1010602
:103D8000D5E017F8040B8DF8000000208DF8010035
:103D9000E946012003E057F8049B4FF0FF30690724
:103DA0004FF0000501D40AE06D1C45450DDA85424F
:103DB000FADB19F805100029F6D106E06D1C8542E2
:103DC000FCDB19F805100029F8D12E4404E019F89D
:103DD000010B5A460F9990476D1EF8D2A7E00A20B2
:103DE0000021CDE90801C5F3025002280BD001CF14
:103DF000C11700290EDA4FF0000CD0EB0C006CEB71
:103E000001012D2309E007F1070727F00707F7E86D
:103E10000201EEE72B0504D52B238DF82830012372
:103E200030E0EB072ED02023F7E70A2000E0102037
:103E30000021CDE9080109E07EE0FFE71020002124
:103E400045F00405CDE908014FF00808C5F302501C
:103E500002281BD001CF00214FF0000A2B0712D5FA
:103E6000702A19D0DDE908C38CF0100C5CEA030C51
:103E700009D150EA010306D030238DF828308DF89F
:103E8000292002239A46582A10D00AE0FF1D27F065
:103E90000707F7E80201DFE740228DF828204FF0FE
:103EA000010A28A20DF120090B9209E02AA2F9E7E4
:103EB000DDE90823FFF776FE0B9B9B5C09F8013DCB
:103EC00050EA0102F4D1ADEB090000F120000890A6
:103ED000680701D44FF001080898804503DD089970
:103EE000A8EB010000E000208046002506E00AA8BB
:103EF0005A46405D0F999047761C6D1C5545F6DB80
:103F000004E030205A460F999047761CB8F1000122
:103F1000A8F10108F5DC05E019F8010B5A460F99E4
:103F20009047761C0899481E08900029F4DC641C10
:103F3000207800287FF4C2AE11B03046BDE8F08F83
:103F4000092801003031323334353637383961626F
:103F50006364656600000000303132333435363733
:103F60003839414243444546000000008C3F000878
:103F700000000020980000008C3C0008244000084D
:103F80009800002040FA00009C3C000800A24A046F
:103F900000000000000000000102030406070809F9
:103FA00000000000010203040102030406070809DF
:103FB00002040608000000000000000000000000ED
:103FC00000000000000000000000000000000000F1
:103FD00000000000000000000000000000000000E1
:103FE00000000000000000000000000000000000D1
:103FF000F8EF0000000000000000000000000000DA
:104000000000000000000000AAAAAAAA0000000008
:1040100000000000000000000000000000000000A0
:04402000000000009C
:0400000508000131BD
:00000001FF
